:020000040800F2
:100000000020002071050008B5050008B5050008AE
:1000100000000000000000000000000000000000E0
:10002000000000000000000000000000B50500080E
:100030000000000000000000B5050008B50500083C
:10004000B5050008B5050008B5050008B5050008A8
:10005000B5050008B5050008B5050008B505000898
:10006000B5050008B5050008B5050008B505000888
:10007000B5050008B5050008B5050008B505000878
:10008000B5050008B505000800000000B50500082A
:10009000B5050008B5050008B5050008B505000858
:1000A000B5050008B5050008B505000815030008EA
:1000B000B505000800000000B505000800000000BC
:1000C0005FF808F180B588B000AF78600023FB616D
:1000D0000023BB6100237B6100233B610023FB60A5
:1000E000654B5A680C231340FB61FB69042B07D056
:1000F000082B09D0002B30D17B68604A1A6030E0B1
:100100007B685E4A1A602CE05B4B5A68F0239B03C5
:100110001340BB61584B5A6880235B0213407B61DC
:10012000BB699B0C0233BB617B69002B05D1BB69AA
:10013000534A5A437B681A6013E04F4BDA6A0F2325
:10014000134001333B614D48396900F0EBFD031C5E
:10015000BA695A437B681A6003E07B68474A1A60B1
:10016000C046454B5A68F0231340FB61FB691B09ED
:10017000FB61444AFB69D3181B78DBB2FB607B68E8
:100180001A68FB68DA407B685A603B4B5A68E02388
:10019000DB001340FB61FB691B0AFB61394AFB6909
:1001A000D3181B78DBB2FB607B685A68FB68DA40C7
:1001B0007B689A60304B1A6B80235B00134003D13D
:1001C0007B68314ADA6010E02B4B5A688023DB01F0
:1001D000134005D17B689B685A087B68DA6004E0AD
:1001E0007B689B689A087B68DA60234B1A6B402314
:1001F000134003D17B68254A1A6103E07B688022A3
:1002000012021A611C4B1A6B1023134003D17B6836
:100210001A4A5A6103E07B681A687B685A61164B78
:100220001A6B0323134004D17B689A687B689A6138
:100230001EE0114B1A6B03231340012B04D17B6882
:100240001A687B689A6113E00B4B1A6B0323134007
:10025000022B04D17B68802212029A6108E0064BCF
:100260001A6B03231340032B02D17B68034A9A6164
:10027000BD4608B080BDC0460010024000127A00A2
:1002800000093D0000000020809FD5001280000082
:1002900080B582B000AF78600A1CFB1C1A70FB1C92
:1002A0001B78002B06D0084B074A51697A680A432D
:1002B0005A6106E0044B044A52697968C9430A400E
:1002C0005A61BD4602B080BD0010024080B582B0C8
:1002D00000AF78600A1CFB1C1A70FB1C1B78002BFB
:1002E00006D0084B074A91697A680A439A6106E08A
:1002F000044B044A92697968C9430A409A61BD4631
:1003000002B080BD0010024080B500AF00F046F89A
:10031000FEE7C04680B500AF1A4A1B4B101C191CE3
:1003200000F09AFB031C002B2AD0164B181C00F07F
:1003300025FB031C1A1C154B1A60144B1B68312B30
:100340000DD1134A80235B00101C191C012200F000
:10035000CFF9104B181C092100F0E2F810E00B4B0C
:100360001B68302B0CD10A4A80235B00101C191C1F
:10037000002200F0BDF9084B181C0A2100F0D0F84B
:10038000BD4680BD00380140050105001000002079
:1003900000080048C40D0008D00D000890B589B0D1
:1003A00000AF3B1D134A13CA13C313CA13C31278F9
:1003B0001A708023DB01181C0121FFF787FF8023BF
:1003C0009B02181C0121FFF763FF00F095F800F075
:1003D00017F800F051F8084A084B101C191C0122AC
:1003E00000F0DAFA3B1D181C192100F099F8BD46FF
:1003F00009B090BDDC0D0008003801400501050082
:1004000080B582B000AF80231B03181C0121FFF7C9
:100410003FFF3B1C802252001A603B1C01221A71D4
:100420003B1C00229A713B1C03225A713B1C002288
:10043000DA71104A3B1C101C191C00F0BDF83B1C63
:10044000C022D2001A603B1C02221A713B1C0322FC
:100450005A713B1C00229A713B1C0122DA719023D5
:10046000DA053B1C101C191C00F0A6F8BD4602B0B2
:1004700080BDC0460008004880B586B000AF80232C
:100480009B02181C0121FFF703FF8023DB01181CCE
:100490000121FFF71BFF3B1C962292011A603B1CB7
:1004A00000225A603B1C00229A603B1C0022DA604A
:1004B0003B1C00225A613B1C0C221A619023DB0575
:1004C000181C0921012200F02BF99023DB05181CD0
:1004D0000A21012200F024F9064A3B1C101C191CB9
:1004E00000F06CF9034B181C012100F017FABD460F
:1004F00006B080BD0038014080B582B000AF3B1D22
:100500001B221A703B1D00225A703B1D01229A705B
:100510003B1D181C00F0B0FBBD4602B080BDC046BC
:1005200080B582B000AF7860396012E07B681B78DC
:100530007A6801327A600D4A101C191C00F00CFA1E
:10054000C0460A4B181C402100F068FA031C002B1F
:10055000F7D03B685A1E9341DBB23A68013A3A60E1
:10056000002BE3D1BD4602B080BDC046003801403B
:10057000002103E00A4B5B584350043109480A4B01
:1005800042189A42F6D3094A02E00023136004326B
:10059000074B9A42F9D300F0B9FAFFF7B5FE70475E
:1005A000F80D0008000000201000002010000020BE
:1005B00014000020FEE7000080B586B000AF786030
:1005C000396000237B6100233B610023FB60002333
:1005D0007B6185E07B690122101C9840031C3B6114
:1005E0003B681B683A691340FB60FA683B699A42B2
:1005F00073D13B681B79012B03D03B681B79022B1D
:1006000038D17B689B687A6952000321081C9040AE
:10061000021CD2431A407B689A607B689A683B68E8
:100620005B79191C7B695B00081C9840031C1A430A
:100630007B689A607B689B889BB27A6992B2012141
:10064000081C9040021C92B2D24392B213409AB25C
:100650007B689A807B689B889AB23B689B79191C5F
:100660007B699BB2081C9840031C9BB213439AB24F
:100670007B689A807B681B687A6952000321081C9A
:100680009040021CD2431A407B681A607B681A684B
:100690003B681B79191C7B695B00081C9840031C94
:1006A0001A437B681A607B68DB687A6992B25200F1
:1006B0000321081C9040021CD2431A407B68DA6078
:1006C0007B68DA683B68DB79191C7B695B00081C76
:1006D0009840031C1A437B68DA607B6901337B61B5
:1006E0007B690F2B00D875E7BD4606B080BDC046BC
:1006F00080B582B000AF7860BB1C19807B1C1A707B
:100700007B1C1B78002B04D0BB1C1A887B689A6169
:1007100003E07B68BA1C12881A85BD4602B080BD12
:1007200090B585B000AF7860BB1C19807B1C1A7037
:100730000023FB600023BB607B1C1A78BB1C19885C
:1007400007230B409B00111C99400B1CFB60BB1C3A
:100750001B88DB089BB21A1CBB1C1B88DB089BB2E6
:10076000191C7B6808318900CB58B91C08880721FF
:10077000014089000F20041C8C40211CC9431940F2
:100780007B6808329200D150BB1C1B88DB089BB2EF
:100790001A1C7B6808329200D258FB681343BB6076
:1007A000BB1C1B88DB089BB21A1C7B6808329200BA
:1007B000B968D150BD4605B090BDC04680B58CB07B
:1007C00000AF786039600023FB620023BB62002326
:1007D0007B627B681B680122191C91430A1C7B68A1
:1007E0001A607B685B687B627A6A474B13407B6266
:1007F0003B689B687A6A13437B627B687A6A5A60BB
:100800007B681B687B627A6A404B13407B623B6863
:100810005A683B68DB681A433B681B6913437A6A72
:1008200013437B627B687A6A1A607B689B687B6291
:100830007A6A374B13407B623B685B697A6A134381
:100840007B627B687A6A9A603B1C0833181CFFF74E
:1008500039FC7A682F4B9A4204D13B1C08339B69C0
:10086000BB6203E03B1C08339B68BB627B681A6871
:1008700080231B02134014D0BB6A5A003B681B68DC
:10088000101C191C00F04EFA031CFB62BB6A5A00D4
:100890003B681B68101C191C00F088FA0B1C7B625B
:1008A00010E03B681B68B86A191C00F03BFA031C97
:1008B000FB623B681B68BA6A101C191C00F076FAD0
:1008C0000B1C7B623B681B685A087B6A9A4202D801
:1008D000FB6A0133FB627B681A6880231B021340AA
:1008E0000AD0FA6A0F2313405B087B62FA6A0A4B4C
:1008F0001A407B6A1343FB62FB6A9AB27B689A8157
:10090000BD460CB080BDC046FFCFFFFFF3E9FFFF3F
:10091000FFFCFFFF00380140F0FF000080B582B00F
:1009200000AF78600A1CFB1C1A70FB1C1B78002BA4
:1009300006D07B681B6801221A437B681A6007E0B7
:100940007B681B680122191C91430A1C7B681A6092
:10095000BD4602B080BDC04680B582B000AF7860B1
:100960000A1CBB1C1A80BB1C1B88DB05DB0D9AB262
:100970007B681A85BD4602B080BDC04680B582B096
:1009800000AF78607B689B8C9BB2DB05DB0D9BB274
:10099000181CBD4602B080BD80B588B000AFF860BD
:1009A000B960FB1D1A700023BB6100237B6100232B
:1009B0003B610023FB61FB68FB61BB689BB21B0AC8
:1009C0009BB2BB61BA68FF2313407B617B69012244
:1009D000111C99400B1C3B61BB69022B03D1FB69C5
:1009E0000433FB6105E0BB69032B02D1FB690833CB
:1009F000FB61FB1D1B78002B06D0FB69FA691168AF
:100A00003A690A431A6006E0FB69FA6912683969B3
:100A1000C9430A401A60BD4608B080BD80B584B0A5
:100A200000AF786039603B1C0F3300221A707B687E
:100A3000DB693A68134004D03B1C0F3301221A7063
:100A400003E03B1C0F3300221A703B1C0F331B7852
:100A5000181CBD4604B080BD80B586B000AF78607C
:100A600039600023FB6000237B610023BB603B1CDB
:100A7000133300221A703B689BB21B0A9BB2BB6007
:100A80003A68FF2313407B617B690122111C994066
:100A90000B1C7B61BB68012B05D17B681A687B69E5
:100AA00013407B610DE0BB68022B05D17B685A685F
:100AB0007B6913407B6104E07B689A687B69134023
:100AC0007B613B681B0CFB60FB680122111C994099
:100AD0000B1CFB607B68DA69FB681340FB607B6979
:100AE000002B07D0FB68002B04D03B1C13330122E2
:100AF0001A7003E03B1C133300221A703B1C1333A3
:100B00001B78181CBD4606B080BDC04680B500AF3E
:100B10001B4B1B4A126801210A431A60184B184AE2
:100B20005168184A0A405A60154B154A1168164A0E
:100B30000A401A60124B124A1168144A0A401A609D
:100B40000F4B0F4A5168124A0A405A600C4B0C4A2C
:100B5000D26A0F218A43DA62094B094A116B0D4AA6
:100B60000A401A63064B064A526B01218A435A63B4
:100B7000034B00229A6000F00FF8BD4680BDC046CE
:100B8000001002400CB8FFF8FFFFF6FEFFFFFBFF6E
:100B9000FFFFC0FFACFEFFFF80B582B000AF0023B7
:100BA0007B6000233B60314B304A12688021490250
:100BB0000A431A602D4B1A6880239B0213403B6046
:100BC0007B6801337B603B68002B04D17A68A023EB
:100BD000DB009A42EED1254B1A6880239B0213401A
:100BE00002D001233B6001E000233B603B68012B06
:100BF00038D11F4B11221A601C4B1C4A52685A6094
:100C00001A4B1A4A52685A60184B184A5168194AC6
:100C10000A405A60154B154A5268882149030A4315
:100C20005A60124B114A1268802149040A431A6023
:100C3000C0460E4B1A6880239B041340F9D00B4B1F
:100C40000A4A526803218A435A60084B074A52688D
:100C500002210A435A60C046044B5A680C231340D1
:100C6000082BF9D1BD4602B080BDC046001002403D
:100C700000200240FFFFC0FF80B584B000AF786065
:100C80000023FB607B689B78002B3CD0244B7A6868
:100C900012789208D2B2C0329200D358FB607B68BF
:100CA0001B781A1C03231340DB00FF22101C984002
:100CB000031CDA43FB681340FB607B685B789A0196
:100CC000FF231A407B681B78191C03230B40DB00B1
:100CD000111C99400B1CFA681343FB60104B7A6897
:100CE00012789208D2B2C0329200F968D1500C4BFF
:100CF0007A681278111C1F220A400121081C9040BA
:100D0000021C1A6009E0064A7B681B78191C1F2325
:100D10000B40012199408023D150BD4604B080BDD5
:100D200000E100E0002934D00123002210B4884201
:100D30002CD301242407A14204D2814202D209010A
:100D40001B01F8E7E400A14204D2814202D249002B
:100D50005B00F8E7884201D3401A1A434C08A042CE
:100D600002D3001B5C0822438C08A04202D3001B64
:100D70009C082243CC08A04202D3001BDC0822437B
:100D8000002803D01B0901D00909E3E7101C10BC9F
:100D90007047002801D00020C04307B4024802A1D8
:100DA0004018029003BDC046190000000029F0D091
:100DB00003B5FFF7B9FF0EBC4243891A1847C04676
:100DC0007047C0464C4544204F4E0D0A00000000BD
:100DD0004C4544204F46460D0A0000002057656CE4
:100DE000636F6D6520746F20426C7565746F6F74EE
:080DF00068210D0A000000005B
:100DF80000000000010203040102030406070809B9
:0400000508000000EF
:00000001FF
