:020000040800F2
:10000000002000207D060008C1060008C106000887
:1000100000000000000000000000000000000000E0
:10002000000000000000000000000000C106000801
:100030000000000000000000C1060008C106000822
:10004000C1060008C1060008C1060008C106000874
:10005000C1060008E90C0008C1060008C106000836
:10006000C1060008C1060008C1060008C106000854
:10007000C1060008C1060008C1060008C106000844
:10008000C1060008C106000800000000C106000803
:10009000C1060008C1060008C1060008C106000824
:1000A000C1060008C1060008C1060008C106000814
:1000B000C106000800000000C106000800000000A2
:1000C0005FF808F180B584B000AF78600023FB6072
:1000D0007B68FB600023FB6002E0FB680133FB6090
:1000E000FA687B689A42F8D3BD4604B080BDC0462A
:1000F00090B585B000AF021CFB1D1A70FB1DFA1DE8
:100100001278803A1A709023DB059B8A9023DB05D6
:1001100000229A82164AFB1D1B78101C191C00F045
:100120009FFB3C1C0F34124B181C00F0AFFB031C50
:1001300023700F4B181C002100F092FB3C1C0F3465
:100140000B4B181C00F0A2FB031C23709023DB0553
:100150009022D205928A92B208210A4392B29A82E0
:100160003B1C0F331B78181CBD4605B090BDC04624
:100170000030014090B585B000AF0A1CFB1D011C8A
:100180001970BB1D1A709023DB059B8A9023DB0539
:1001900000229A82154AFB1D1B78101C191C00F0C6
:1001A0005FFB3C1C0F34114B181C00F06FFB031C51
:1001B00023700E4ABB1D1B78101C191C00F050FB4D
:1001C0003C1C0F34094B181C00F060FB031C23700F
:1001D0009023DB059022D205928A92B208210A432D
:1001E00092B29A82BD4605B090BDC0460030014033
:1001F00090B585B000AF021CFB1D1A709023DB0583
:100200009B8A9023DB0500229A82104AFB1D1B78F3
:10021000101C191C00F024FB3C1C0F340B4B181C49
:1002200000F034FB031C23709023DB059022D205E1
:10023000928A92B208210A4392B29A823B1C0F33EF
:100240001B78181CBD4605B090BDC046003001406B
:1002500080B582B000AF021CFB1D1A70FB1D1B781D
:10026000012B03D13420FFF7C3FF06E0FB1D1B78F1
:10027000002B02D13620FFF7BBFFBD4602B080BD88
:1002800090B587B000AF00233B613B1C16330022C2
:100290001A700CE03B1C16331B783A1C0021D15419
:1002A0003B1C16333A1C1632127801321A703B1C72
:1002B00016331B780D2BEDD90AE03B6901333B6106
:1002C0003A69334B9A4203D900233B61C04612E09E
:1002D0009023DB051B8A9BB21A1C02231340ECD02F
:1002E00009E03B6901333B613A69294B9A4202D9E3
:1002F00000233B6107E09023DB051B8A9BB21A1C9D
:1003000002231340EDD13B1C173300221A7010E07A
:100310003B1C17331C783F20FFF7EAFE031C1A1C16
:100320003B1C1A553B1C17333A1C1732127801320A
:100330001A703B1C17331B780B2BE9D9154B1B6824
:100340003A1C101C191C092200F0D6FE031C002BBD
:100350000ED13B1C5B7A1A1C9200D3185B00DAB2F8
:100360003B1C9B7AD318DBB2103BDAB20A4B1A70F3
:100370003620FFF73DFF0A20FFF7A4FE3A20FFF7E3
:1003800037FF0A20FFF79EFEBD4607B090BDC0466E
:1003900040D2DF03000000200800002080B500AF3D
:1003A00001202E21FFF7E6FE02200621FFF7E2FEE4
:1003B00003200721FFF7DEFE0420D321FFF7DAFE3A
:1003C00005209121FFF7D6FE06200C21FFF7D2FE73
:1003D00007200421FFF7CEFE08200421FFF7CAFE04
:1003E00009200021FFF7C6FE0A200021FFF7C2FE08
:1003F0000B200821FFF7BEFE0C200021FFF7BAFEFC
:100400000D205D21FFF7B6FE0E209321FFF7B2FE0F
:100410000F20B121FFF7AEFE10208621FFF7AAFEC4
:1004200011208321FFF7A6FE12200321FFF7A2FE71
:1004300013202221FFF79EFE1420F821FFF79AFED9
:1004400015204421FFF796FE16200721FFF792FEA4
:1004500017202F21FFF78EFE18201821FFF78AFEA4
:1004600019201621FFF786FE1A206C21FFF782FE65
:100470001B200321FFF77EFE1C204021FFF77AFEA0
:100480001D209121FFF776FE1E208721FFF772FEC7
:100490001F206B21FFF76EFE2020F821FFF76AFE78
:1004A00021205621FFF766FE22201021FFF762FE71
:1004B0002320A921FFF75EFE24200A21FFF75AFE20
:1004C00025200021FFF756FE26201121FFF752FEBE
:1004D00027204121FFF74EFE28200021FFF74AFE8A
:1004E00029205921FFF746FE2A207F21FFF742FEEF
:1004F0002B203F21FFF73EFE2C208821FFF73AFEFC
:100500002D203121FFF736FE2E200B21FFF732FE82
:10051000BD4680BD80B582B000AF00237B60002364
:100520003B6000233B6010E07B68DBB27A680132FD
:100530007A60181CFFF7DCFD031C1A1C06493B6897
:10054000CB181A703B6801333B603B68622BEBD9D8
:10055000BD4602B080BDC0460C00002080B500AF93
:100560009023DB05802292019A61FFF7D3FFFA23E3
:100570009B00181CFFF7A6FDFFF710FFFA239B0056
:10058000181CFFF79FFDBD4680BDC04680B582B0F8
:1005900000AF78600A1CFB1C1A70FB1C1B78002B38
:1005A00006D0084B074A51697A680A435A6106E047
:1005B000044B044A52697968C9430A405A61BD46EE
:1005C00002B080BD0010024080B582B000AF7860FC
:1005D0000A1CFB1C1A70FB1C1B78002B06D0084B56
:1005E000074A91697A680A439A6106E0044B044A13
:1005F00092697968C9430A409A61BD4602B080BDDC
:100600000010024080B582B000AF78600A1CFB1C6D
:100610001A70FB1C1B78002B06D0084B074AD168C8
:100620007A680A43DA6006E0044B044AD2687968C3
:10063000C9430A40DA60BD4602B080BD00100240E6
:1006400080B582B000AF78600A1CFB1C1A70FB1CDE
:100650001B78002B06D0084B074A11697A680A43B9
:100660001A6106E0044B044A12697968C9430A40DA
:100670001A61BD4602B080BD00100240002103E0B7
:100680000A4B5B584350043109480A4B42189A42BE
:10069000F6D3094A02E0002313600432074B9A4262
:1006A000F9D300F033FB00F0EDF970473412000885
:1006B000000000200800002008000020700000203A
:1006C000FEE7000080B582B000AF78607A68114B19
:1006D0009A420CD180235B01181C0121FFF792FF85
:1006E00080235B01181C0021FFF78CFF0FE07A6864
:1006F000094B9A420BD18023DB01181C0121FFF723
:100700009FFF8023DB01181C0021FFF799FFBD46E6
:1007100002B080BD003001400038004080B584B098
:1007200000AF786039603B1C0E3300221A803B1CFE
:100730000E337A6812881A803B1C0E333A1C0E3234
:100740001188C12292010A401A803B681A883B68CE
:10075000DB8913439AB23B68DB8813439AB23B6848
:100760001B8913439AB23B685B8913439AB23B6877
:100770009B89134399B23B1C0E333A1C0E321288EC
:100780000A431A807B683A1C0E3212881A803B1C7E
:100790000E337A6892881A803B1C0E333A1C0E3254
:1007A00011881D4A0A401A803B6899883B1C0E3309
:1007B0003A1C0E3212880A431A807B683A1C0E32A9
:1007C00012889A803B681A8A7B681A823B1C0E3317
:1007D0007A6812881A803B1C0E333A1C0E3212883B
:1007E00004218A431A803B6859883B1C0E333A1C0B
:1007F0000E3212880A431A807B683A1C0E32128825
:100800001A807B689B8B9AB2044B13409AB27B6828
:100810009A83BD4604B080BDFFF0FFFFFFF7FFFFE6
:1008200080B582B000AF78600A1CFB1C1A70FB1CFC
:100830001B78002B08D07B681B889BB24022134397
:100840009AB27B681A8007E07B681B889BB24022C3
:1008500093439AB27B681A80BD4602B080BDC04601
:1008600080B584B000AF78600A1CFB1C1A700023AE
:10087000FB607B68FB60FB680C33FB60FB68FA1C69
:1008800012781A70BD4604B080BDC04680B584B0F1
:1008900000AF78600023FB607B68FB60FB680C3373
:1008A000FB60FB681B78DBB2181CBD4604B080BD42
:1008B00080B586B000AF7860396000237B6100238B
:1008C0003B610023FB6000237B6185E07B690122A3
:1008D000101C9840031C3B613B681B683A6913403D
:1008E000FB60FA683B699A4273D13B681B79012B24
:1008F00003D03B681B79022B38D17B689B687A69EF
:1009000052000321081C9040021CD2431A407B680D
:100910009A607B689A683B685B79191C7B695B000D
:10092000081C9840031C1A437B689A607B689B886C
:100930009BB27A6992B20121081C9040021C92B2CB
:10094000D24392B213409AB27B689A807B689B88AC
:100950009AB23B689B79191C7B699BB2081C984032
:10096000031C9BB213439AB27B689A807B681B6816
:100970007A6952000321081C9040021CD2431A409D
:100980007B681A607B681A683B681B79191C7B6955
:100990005B00081C9840031C1A437B681A607B6844
:1009A000DB687A6992B252000321081C9040021C55
:1009B000D2431A407B68DA607B68DA683B68DB798F
:1009C000191C7B695B00081C9840031C1A437B6858
:1009D000DA607B6901337B617B690F2B00D875E797
:1009E000BD4606B080BDC04690B585B000AF78600A
:1009F000BB1C19807B1C1A700023FB600023BB60AA
:100A00007B1C1A78BB1C198807230B409B00111C08
:100A100099400B1CFB60BB1C1B88DB089BB21A1C9B
:100A2000BB1C1B88DB089BB2191C7B680831890042
:100A3000CB58B91C08880721014089000F20041CED
:100A40008C40211CC94319407B6808329200D15068
:100A5000BB1C1B88DB089BB21A1C7B680832920007
:100A6000D258FB681343BB60BB1C1B88DB089BB2DE
:100A70001A1C7B6808329200B968D150BD4605B097
:100A800090BDC04680B500AF00F02EF8FFF766FDC0
:100A90000120FFF7DDFB00E0C046104B01221A7079
:100AA0000E4B1B78002B04D00C4B00221A70FFF762
:100AB000E7FB0B4B1B78002BEED0094B1B78312B3F
:100AC00008D1084B074A928A92B2802189004A4095
:100AD00092B29A82024B00221A70DDE709000020D0
:100AE000080000200008004880B58AB000AF8023CD
:100AF0005B01181C0121FFF767FDA0231B03181CD5
:100B00000121FFF743FD9023DB05181C052100227E
:100B1000FFF76AFF9023DB05181C06210022FFF770
:100B200063FF9023DB05181C07210022FFF75CFF01
:100B30003B1C203302221A713B1C203300229A7185
:100B40003B1C20330222DA713B1C203303225A71F2
:100B50003B1C203320221A609023DA053B1C2033F3
:100B6000101C191CFFF7A4FE3B1C203380221A60C6
:100B70009023DA053B1C2033101C191CFFF798FE4C
:100B80003B1C203340221A609023DA053B1C2033A3
:100B9000101C191CFFF78CFE514B181CFFF792FD1F
:100BA0003B1C0C3300221A803B1C0C33E022D20089
:100BB0009A803B1C0C330022DA803B1C0C33002251
:100BC0001A813B1C0C33802292005A813B1C0C334F
:100BD00008229A813B1C0C330022DA813B1C0C3327
:100BE00007221A823B1C0C33822252005A803C4A54
:100BF0003B1C0C33101C191CFFF790FD384B181CC4
:100C00000121FFF70DFE3B1C203308221A603B1C1C
:100C1000203301221A713B1C203300229A713B1CA5
:100C2000203303225A719023DA053B1C2033101C19
:100C3000191CFFF73DFE3B1C2033802292001A60F6
:100C40003B1C203301221A713B1C203300229A7175
:100C50003B1C203303225A71224A3B1C2033101CB8
:100C6000191CFFF725FE3B1C203302221A603B1C97
:100C7000203300221A713B1C20330122DA719023A9
:100C8000DA053B1C2033101C191CFFF711FE012054
:100C90000121FFF799FC0020012100F08FF93B1D95
:100CA00002221A603B1D00221A713B1D0C225A7150
:100CB0003B1D01229A713B1D181C00F0DDF83B1C06
:100CC00005221A703B1C00225A703B1C01229A70AC
:100CD0003B1C181C00F0BAF9BD460AB080BDC046E6
:100CE000003001400008004880B500AF022000F04D
:100CF0002FF9031C002B05D0034B01221A70022090
:100D000000F050F9BD4680BD0900002080B500AF5D
:100D10001B4B1B4A126801210A431A60184B184AE0
:100D20005168184A0A405A60154B154A1168164A0C
:100D30000A401A60124B124A1168144A0A401A609B
:100D40000F4B0F4A5168124A0A405A600C4B0C4A2A
:100D5000D26A0F218A43DA62094B094A116B0D4AA4
:100D60000A401A63064B064A526B01218A435A63B2
:100D7000034B00229A6000F00FF8BD4680BDC046CC
:100D8000001002400CB8FFF8FFFFF6FEFFFFFBFF6C
:100D9000FFFFC0FFACFEFFFF80B582B000AF0023B5
:100DA0007B6000233B60314B304A1268802149024E
:100DB0000A431A602D4B1A6880239B0213403B6044
:100DC0007B6801337B603B68002B04D17A68A023E9
:100DD000DB009A42EED1254B1A6880239B02134018
:100DE00002D001233B6001E000233B603B68012B04
:100DF00038D11F4B11221A601C4B1C4A52685A6092
:100E00001A4B1A4A52685A60184B184A5168194AC4
:100E10000A405A60154B154A5268882149030A4313
:100E20005A60124B114A1268802149040A431A6021
:100E3000C0460E4B1A6880239B041340F9D00B4B1D
:100E40000A4A526803218A435A60084B074A52688B
:100E500002210A435A60C046044B5A680C231340CF
:100E6000082BF9D1BD4602B080BDC046001002403B
:100E700000200240FFFFC0FF80B584B000AF786063
:100E80000023FB60314BFB607B689B79002B4DD0CE
:100E90002E4B2E4A11687A681268D2430A401A60B3
:100EA0002A4B2A4A51687A681268D2430A405A602B
:100EB0007B681B79FA68D318FB60FB68FA681168D5
:100EC0007A6812680A431A60204B204A91687A684F
:100ED0001268D2430A409A601C4B1C4AD1687A6857
:100EE0001268D2430A40DA607B685B79102B0ED11E
:100EF000164B164A91687A6812680A439A60134B37
:100F0000124AD1687A6812680A43DA601BE00F4B14
:100F1000FB607B685B79FA68D318FB60FB68FA6852
:100F200011687A6812680A431A600CE07B681B79C2
:100F3000FA68D318FB60FB68FA6811687A6812686F
:100F4000D2430A401A60BD4604B080BD000401408F
:100F500080B584B000AF78603B1C0F3300221A705C
:100F60000023BB600E4B1B687A681340BB600C4BC0
:100F70005B697A68134007D0BB68002B04D03B1C28
:100F80000F3301221A7003E03B1C0F3300221A704A
:100F90003B1C0F331B78181CBD4604B080BDC046F7
:100FA0000004014080B582B000AF7860024B7A68DF
:100FB0005A61BD4602B080BD00040140B0B584B0A6
:100FC00000AF0A1CFB1D011C1970BB1D1A70002309
:100FD000FB60BB1D1A78032313409B000F22111CDA
:100FE00099400B1CFB60184BBA1D12789208D2B2C4
:100FF0001549B81D00788008C0B202308000415801
:10100000F868C043014002329200D1500E4BBA1D25
:1010100012789208D2B20C49B81D00788008C0B28C
:10102000023080004058F91D0C78B91D0D7803215D
:1010300029408900251C8D40291C01430232920061
:10104000D150BD4604B0B0BD0000014080B584B0B1
:1010500000AF78600023FB607B689B78002B3CD05E
:10106000244B7A6812789208D2B2C0329200D358D8
:10107000FB607B681B781A1C03231340DB00FF22F4
:10108000101C9840031CDA43FB681340FB607B682C
:101090005B789A01FF231A407B681B78191C032395
:1010A0000B40DB00111C99400B1CFA681343FB60DA
:1010B000104B7A6812789208D2B2C0329200F96866
:1010C000D1500C4B7A681278111C1F220A40012162
:1010D000081C9040021C1A6009E0064A7B681B78D5
:1010E000191C1F230B40012199408023D150BD467C
:1010F00004B080BD00E100E0F0B5061C0020002A2D
:101100002ED00B1C33439C072BD0013A30780D783E
:10111000A84224D1002A47D0002845D0741CB71813
:101120003B1B0131DA0716D520780D78A84216D17D
:10113000002839D0013401310DE0BC4234D0002800
:1011400032D060784D78661C4A1CA84207D100282E
:101150002AD0741C511C20780D78A842EDD0401B79
:10116000F0BD032AD1D933680D68AB42CDD1141F2D
:10117000002CF5D0264FDD19264F9D433D42EFD17F
:10118000301C630731D5351D0B1D2E6819688E4242
:1011900035D1141C083C002C06D01D4A281CB5185B
:1011A000B543191C3D4220D00020D9E74268486869
:1011B000824224D1043C002CF6D0154E281C9119F3
:1011C00091439C463942EFD1043504332E681968A7
:1011D0008E4214D1043C002CE6D00D4B6146F5182C
:1011E000B543043004313D42DED1051D0B1D032CF7
:1011F000DCD8621E002C06D0191C2E1C86E7621E4D
:10120000191C2E1C82E700790D79401BA8E7C04607
:10121000FFFEFEFE8080808074782D3132333435BD
:101220003600000072785F69642D31323334353610
:0412300000000000BA
:08123400181200082412000842
:0400000508000000EF
:00000001FF
