:020000040800F2
:100000000020002021080008650800086508000895
:1000100000000000000000000000000000000000E0
:10002000000000000000000000000000650800085B
:1000300000000000000000006508000865080008D6
:1000400065080008650800086508000865080008DC
:10005000650800081D12000865080008650800080A
:1000600065080008650800086508000865080008BC
:1000700065080008650800086508000865080008AC
:100080006508000865080008000000006508000811
:10009000650800086508000865080008650800088C
:1000A000650800086508000865080008BD1000081C
:1000B0006508000800000000650800080000000056
:1000C0005FF808F180B584B000AF78600023FB6072
:1000D0007B68FB600023FB6002E0FB680133FB6090
:1000E000FA687B689A42F8D3BD4604B080BDC0462A
:1000F00090B585B000AF021CFB1D1A70FB1DFA1DE8
:100100001278803A1A709023DB059B8A9023DB05D6
:1001100000229A82164AFB1D1B78101C191C00F045
:1001200071FC3C1C0F34124B181C00F081FC031CAA
:1001300023700F4B181C002100F064FC3C1C0F3492
:100140000B4B181C00F074FC031C23709023DB0580
:100150009022D205928A92B208210A4392B29A82E0
:100160003B1C0F331B78181CBD4605B090BDC04624
:100170000030014090B585B000AF0A1CFB1D011C8A
:100180001970BB1D1A709023DB059B8A9023DB0539
:1001900000229A82154AFB1D1B78101C191C00F0C6
:1001A00031FC3C1C0F34114B181C00F041FC031CAB
:1001B00023700E4ABB1D1B78101C191C00F022FC7A
:1001C0003C1C0F34094B181C00F032FC031C23703C
:1001D0009023DB059022D205928A92B208210A432D
:1001E00092B29A82BD4605B090BDC0460030014033
:1001F00090B585B000AF021CFB1D1A709023DB0583
:100200009B8A9023DB0500229A82104AFB1D1B78F3
:10021000101C191C00F0F6FB3C1C0F340B4B181C77
:1002200000F006FC031C23709023DB059022D2050E
:10023000928A92B208210A4392B29A823B1C0F33EF
:100240001B78181CBD4605B090BDC046003001406B
:1002500080B582B000AF021CFB1D1A70FB1D1B781D
:10026000012B09D13620FFF7C3FF3A20FFF7C0FF6B
:100270003420FFF7BDFF06E0FB1D1B78002B02D1E9
:100280003620FFF7B5FFBD4602B080BD90B587B000
:1002900000AF00233B613B1C163300221A700CE0B8
:1002A0003B1C16331B783A1D0021D1543B1C1633DE
:1002B0003A1C1632127801321A703B1C16331B7826
:1002C0000B2BEDD9C0469023DB051B8A9BB21A1C71
:1002D00002231340F7D0C0469023DB051B8A9BB254
:1002E0001A1C02231340F7D13B1C173300221A704B
:1002F00010E03B1C17331C783F20FFF7F9FE031C6E
:100300001A1C3B1D1A553B1C17333A1C1732127826
:1003100001321A703B1C17331B780B2BE9D9134B96
:100320001B683A1D101C191C092201F061FC031CFA
:10033000002B0ED13B1D5B7A1A1C9200D3185B0078
:10034000DAB23B1D9B7AD318DBB2103BDAB2084B12
:100350001A703620FFF74CFF3A20FFF749FF342090
:10036000FFF746FFBD4607B090BDC0461000002015
:100370001C00002080B500AF01202E21FFF7FAFEFF
:1003800002200621FFF7F6FE03200721FFF7F2FE09
:100390000420D321FFF7EEFE05209121FFF7EAFEAE
:1003A00006200C21FFF7E6FE07200421FFF7E2FEFE
:1003B00008200421FFF7DEFE09200021FFF7DAFE06
:1003C0000A200021FFF7D6FE0B200821FFF7D2FEFE
:1003D0000C200021FFF7CEFE0D205D21FFF7CAFEA5
:1003E0000E209321FFF7C6FE0F20B121FFF7C2FEBA
:1003F00010208621FFF7BEFE11208321FFF7BAFEF1
:1004000012200321FFF7B6FE13202221FFF7B2FED0
:100410001420F821FFF7AEFE15204421FFF7AAFEB5
:1004200016200721FFF7A6FE17202F21FFF7A2FEB7
:1004300018201821FFF79EFE19201621FFF79AFEBB
:100440001A206C21FFF796FE1B200321FFF792FE76
:100450001C204021FFF78EFE1D209121FFF78AFE10
:100460001E208721FFF786FE1F206B21FFF782FEEB
:100470002020F821FFF77EFE21205621FFF77AFE8B
:1004800022201021FFF776FE2320A921FFF772FE1C
:1004900024200A21FFF76EFE25200021FFF76AFEC7
:1004A00026201121FFF766FE27204121FFF762FE7B
:1004B00028200021FFF75EFE29205921FFF75AFE70
:1004C0002A207F21FFF756FE2B203F21FFF752FE07
:1004D0002C208821FFF74EFE2D203121FFF74AFE08
:1004E0002E200B21FFF746FEBD4680BD80B582B0B1
:1004F00000AF00237B6000233B6000233B6010E0E3
:100500007B68DBB27A6801327A60181CFFF7F0FD75
:10051000031C1A1C06493B68CB181A703B68013350
:100520003B603B68622BEBD9BD4602B080BDC04644
:100530002000002080B500AF9023DB0580229201CF
:100540009A61FFF7D3FFFA239B00181CFFF7BAFD4F
:10055000FFF710FFFA239B00181CFFF7B3FDBD4601
:1005600080BDC04680B588B000AF78600023FB61D5
:100570000023BB6100237B6100233B610023FB6000
:10058000654B5A680C231340FB61FB69042B07D0B1
:10059000082B09D0002B30D17B68604A1A6030E00C
:1005A0007B685E4A1A602CE05B4B5A68F0239B0321
:1005B0001340BB61584B5A6880235B0213407B6138
:1005C000BB699B0C0233BB617B69002B05D1BB6906
:1005D000534A5A437B681A6013E04F4BDA6A0F2381
:1005E000134001333B614D48396901F01BFA031C8C
:1005F000BA695A437B681A6003E07B68474A1A600D
:10060000C046454B5A68F0231340FB61FB691B0948
:10061000FB61444AFB69D3181B78DBB2FB607B6843
:100620001A68FB68DA407B685A603B4B5A68E023E3
:10063000DB001340FB61FB691B0AFB61394AFB6964
:10064000D3181B78DBB2FB607B685A68FB68DA4022
:100650007B689A60304B1A6B80235B00134003D198
:100660007B68314ADA6010E02B4B5A688023DB014B
:10067000134005D17B689B685A087B68DA6004E008
:100680007B689B689A087B68DA60234B1A6B40236F
:10069000134003D17B68254A1A6103E07B688022FE
:1006A00012021A611C4B1A6B1023134003D17B6892
:1006B0001A4A5A6103E07B681A687B685A61164BD4
:1006C0001A6B0323134004D17B689A687B689A6194
:1006D0001EE0114B1A6B03231340012B04D17B68DE
:1006E0001A687B689A6113E00B4B1A6B0323134063
:1006F000022B04D17B68802212029A6108E0064B2B
:100700001A6B03231340032B02D17B68034A9A61BF
:10071000BD4608B080BDC0460010024000127A00FD
:1007200000093D0000000020809FD50012800000DD
:1007300080B582B000AF78600A1CFB1C1A70FB1CED
:100740001B78002B06D0084B074A51697A680A4388
:100750005A6106E0044B044A52697968C9430A4069
:100760005A61BD4602B080BD0010024080B582B023
:1007700000AF78600A1CFB1C1A70FB1C1B78002B56
:1007800006D0084B074A91697A680A439A6106E0E5
:10079000044B044A92697968C9430A409A61BD468C
:1007A00002B080BD0010024080B582B000AF78601A
:1007B0000A1CFB1C1A70FB1C1B78002B06D0084B74
:1007C000074AD1687A680A43DA6006E0044B044AB3
:1007D000D2687968C9430A40DA60BD4602B080BD7C
:1007E0000010024080B582B000AF78600A1CFB1C8C
:1007F0001A70FB1C1B78002B06D0084B074A1169A6
:100800007A680A431A6106E0044B044A126979685F
:10081000C9430A401A61BD4602B080BD00100240C3
:10082000002103E00A4B5B584350043109480A4B4E
:1008300042189A42F6D3094A02E0002313600432B8
:10084000074B9A42F9D300F0F7FE00F005FA704723
:1008500034260008000000201800002018000020A6
:10086000C8000020FEE7000080B582B000AF7860CD
:100870007A68114B9A420CD180235B01181C01212C
:10088000FFF792FF80235B01181C0021FFF78CFF0C
:100890000FE07A68094B9A420BD18023DB01181CC8
:1008A0000121FFF79FFF8023DB01181C0021FFF7C8
:1008B00099FFBD4602B080BD0030014000380040C5
:1008C00080B584B000AF786039603B1C0E330022E5
:1008D0001A803B1C0E337A6812881A803B1C0E3338
:1008E0003A1C0E321188C12292010A401A803B68DC
:1008F0001A883B68DB8913439AB23B68DB88134351
:100900009AB23B681B8913439AB23B685B891343D5
:100910009AB23B689B89134399B23B1C0E333A1C35
:100920000E3212880A431A807B683A1C0E321288F3
:100930001A803B1C0E337A6892881A803B1C0E3357
:100940003A1C0E3211881D4A0A401A803B68998869
:100950003B1C0E333A1C0E3212880A431A807B6805
:100960003A1C0E3212889A803B681A8A7B681A8277
:100970003B1C0E337A6812881A803B1C0E333A1CDB
:100980000E32128804218A431A803B6859883B1C26
:100990000E333A1C0E3212880A431A807B683A1CC6
:1009A0000E3212881A807B689B8B9AB2044B1340DC
:1009B0009AB27B689A83BD4604B080BDFFF0FFFF0A
:1009C000FFF7FFFF80B582B000AF78600A1CFB1C08
:1009D0001A70FB1C1B78002B08D07B681B889BB20D
:1009E000402213439AB27B681A8007E07B681B8819
:1009F0009BB2402293439AB27B681A80BD4602B0F4
:100A000080BDC04680B584B000AF78600A1CFB1C76
:100A10001A700023FB607B68FB60FB680C33FB6093
:100A2000FB68FA1C12781A70BD4604B080BDC0463F
:100A300080B584B000AF78600023FB607B68FB600A
:100A4000FB680C33FB60FB681B78DBB2181CBD46EF
:100A500004B080BD80B586B000AF786039600023F7
:100A60007B6100233B610023FB6000237B6185E009
:100A70007B690122101C9840031C3B613B681B688A
:100A80003A691340FB60FA683B699A4273D13B684C
:100A90001B79012B03D03B681B79022B38D17B6873
:100AA0009B687A6952000321081C9040021CD243C3
:100AB0001A407B689A607B689A683B685B79191C6E
:100AC0007B695B00081C9840031C1A437B689A6092
:100AD0007B689B889BB27A6992B20121081C904086
:100AE000021C92B2D24392B213409AB27B689A80AF
:100AF0007B689B889AB23B689B79191C7B699BB287
:100B0000081C9840031C9BB213439AB27B689A80DE
:100B10007B681B687A6952000321081C9040021C04
:100B2000D2431A407B681A607B681A683B681B795D
:100B3000191C7B695B00081C9840031C1A437B68E6
:100B40001A607B68DB687A6992B252000321081C44
:100B50009040021CD2431A407B68DA607B68DA68F6
:100B60003B68DB79191C7B695B00081C9840031CFF
:100B70001A437B68DA607B6901337B617B690F2BE9
:100B800000D875E7BD4606B080BDC04680B582B0CE
:100B900000AF7860BB1C19807B1C1A707B1C1B7813
:100BA000002B04D0BB1C1A887B689A6103E07B6829
:100BB000BA1C12881A85BD4602B080BD90B585B0BA
:100BC00000AF7860BB1C19807B1C1A700023FB608F
:100BD0000023BB607B1C1A78BB1C198807230B40C1
:100BE0009B00111C99400B1CFB60BB1C1B88DB0885
:100BF0009BB21A1CBB1C1B88DB089BB2191C7B68B0
:100C000008318900CB58B91C0888072101408900A8
:100C10000F20041C8C40211CC94319407B680832FA
:100C20009200D150BB1C1B88DB089BB21A1C7B684E
:100C300008329200D258FB681343BB60BB1C1B8870
:100C4000DB089BB21A1C7B6808329200B968D1504D
:100C5000BD4605B090BDC04680B500AF00F046F877
:100C6000FFF768FC00F03EF900F0FAF90120FFF709
:100C7000EFFA00E0C046174B164A928A91B2164A24
:100C80000A4092B29A82154B181C052100F0C0F957
:100C9000134B181CFFF716FA124B1B78002B04D0CD
:100CA000104B00221A70FFF7F1FA0F4B1B78002B44
:100CB000E0D00D4B1B78312B08D1064B054A928AA8
:100CC00092B2802149004A4092B29A82064B002299
:100CD0001A70CFE700080048FFFCFFFFEC25000872
:100CE00040420F001D0000201C00002080B588B08D
:100CF00000AF80235B01181C0121FFF737FDA02303
:100D00001B03181C0121FFF713FD9023DB05181CA2
:100D100005210022FFF752FF9023DB05181C062156
:100D20000022FFF74BFF9023DB05181C0721002250
:100D3000FFF744FF3B1C183302221A713B1C183387
:100D400000229A713B1C18330222DA713B1C1833C3
:100D500003225A713B1C183320221A609023DA05B3
:100D60003B1C1833101C191CFFF774FE3B1C183376
:100D700080221A609023DA053B1C1833101C191CC2
:100D8000FFF768FE3B1C183340221A609023DA05F7
:100D90003B1C1833101C191CFFF75CFE80231B033F
:100DA000181C0121FFF7C4FC3B1C1833C022920021
:100DB0001A603B1C183301221A713B1C18330022A5
:100DC0009A713B1C183303225A713B1C18330022C2
:100DD000DA71424A3B1C1833101C191CFFF73AFE0B
:100DE0003B1C1833C022D2001A603B1C183302226D
:100DF0001A713B1C183303225A713B1C1833002212
:100E00009A713B1C18330122DA719023DA053B1CDE
:100E10001833101C191CFFF71DFE314B181CFFF76F
:100E200023FD3B1D00221A803B1DE022D2009A8048
:100E30003B1D0022DA803B1D00221A813B1D8022CF
:100E400092005A813B1D08229A813B1D0022DA81C3
:100E50003B1D07221A823B1D822252005A80204AE3
:100E60003B1D101C191CFFF72BFD1D4B181C0121ED
:100E7000FFF7A8FD3B1C183308221A603B1C1833EF
:100E800001221A713B1C183300229A713B1C183343
:100E900003225A719023DA053B1C1833101C191CCD
:100EA000FFF7D8FD3B1C1833802292001A603B1CD0
:100EB000183301221A713B1C183300229A713B1C13
:100EC000183303225A71054A3B1C1833101C191C95
:100ED000FFF7C0FDBD4608B080BDC0460008004811
:100EE0000030014080B586B000AF3B1C10330222B9
:100EF0001A603B1C103300221A713B1C1033032272
:100F00005A713B1C10330022DA719023DA053B1C26
:100F10001033101C191CFFF79DFD01200121FFF764
:100F200025FC0020012100F0DFFC3B1C08330222DD
:100F30001A603B1C083300221A713B1C08330C2238
:100F40005A713B1C083301229A713B1C0833181C50
:100F500000F028FC3B1D1B221A703B1D00225A701A
:100F60003B1D01229A703B1D181C00F005FD3B1D26
:100F700005221A703B1D00225A703B1D01229A70F7
:100F80003B1D181C00F0F8FCBD4606B080BDC046F5
:100F900080B586B000AF80239B02181C0121FFF7AB
:100FA000C7FB8023DB01181C0121FFF7DFFB3B1C83
:100FB000962292011A603B1C00225A603B1C0022C0
:100FC0009A603B1C0022DA603B1C00225A613B1CE9
:100FD0000C221A619023DB05181C09210122FFF75E
:100FE000EDFD9023DB05181C0A210122FFF7E6FD29
:100FF000064A3B1C101C191C00F076F9034B181C08
:10100000012100F021FABD4606B080BD0038014044
:1010100080B582B000AF7860396012E07B681B78E1
:101020007A6801327A600D4A101C191C00F02AFA05
:10103000C0460A4B181C402100F086FA031C002B06
:10104000F7D03B685A1E9341DBB23A68013A3A60E6
:10105000002BE3D1BD4602B080BDC0460038014040
:1010600080B584B000AF3B1D114A03CA03C3118889
:10107000198092789A708023DB01181C0121FFF7F8
:1010800075FB80239B02181C0121FFF751FBFFF722
:101090007FFF084A084B101C191C012200F012FAAD
:1010A0003B1D181C0B21FFF7B3FFBD4604B080BDEC
:1010B000F4250008003801400501050098B500AF8F
:1010C000484A494B101C191C00F05CFA031C002B09
:1010D00000D184E0454B1C68424B181C00F0E4F939
:1010E000031CDAB2424B1A55404B1B685A1C3F4B4B
:1010F0001A603E4B1B68312B02DD3C4B00221A600C
:101100003B4A3C4B101C191C00F068FD031C002BD3
:1011100015D1394B01221A70384B1B68DAB2384BA3
:101120001A70384A80235B00101C191C0122FFF73B
:101130002DFD354B181C0921FFF76AFF4FE02C4AA3
:10114000324B101C191C00F049FD031C002B15D15B
:10115000294B01221A70294B1B68DAB2284B1A70EE
:10116000284A80235B00101C191C0022FFF70EFD8B
:10117000274B181C0A21FFF74BFF30E01C4A254B78
:10118000101C191C00F08AFF031C002B0FD01D4BF4
:101190001C4A928A92B2802149004A4092B29A82B5
:1011A000134B181C0021322200F08CFC17E0104A6F
:1011B000194B101C191C00F071FF031C002B0ED0E2
:1011C000104B104A928A92B2802189004A4092B212
:1011D0009A82074B181C0021322200F073FCBD4696
:1011E00098BDC046003801400501050018000020E8
:1011F00094000020002600081D000020840000202C
:101200001C000020000800480426000810260008E2
:1012100014260008202600082C26000890B583B06C
:1012200000AF022000F02AFB031C002B50D0BB1D96
:1012300000221A7009E0BB1D1B78274A0021D154F7
:10124000BB1DBA1D127801321A70BB1D1B780B2B07
:10125000F1D9FB1D00221A700DE0FB1D1C783F2008
:10126000FEF746FF031C1A1C1B4B1A55FB1DFA1DEB
:10127000127801321A70FB1D1B780B2BEDD9174B1E
:101280001B68154A101C191C092200F0B1FC031C34
:10129000002B11D1104B5B7A1A1C9200D3185B0003
:1012A000DAB20D4B9B7AD318DBB2103BDAB20C4B9F
:1012B0001A700C4B01221A703620FEF799FF3A2063
:1012C000FEF796FF3420FEF793FF022000F000FBAC
:1012D000BD4603B090BDC04688000020100000202D
:1012E0001C0000201D00002080B58CB000AF78608D
:1012F00039600023FB620023BB6200237B627B68B2
:101300001B680122191C91430A1C7B681A607B68C8
:101310005B687B627A6A474B13407B623B689B68E1
:101320007A6A13437B627B687A6A5A607B681B68BF
:101330007B627A6A404B13407B623B685A683B6829
:10134000DB681A433B681B6913437A6A13437B6269
:101350007B687A6A1A607B689B687B627A6A374B23
:1013600013407B623B685B697A6A13437B627B68EC
:101370007A6A9A603B1C0833181CFFF7F3F87A6806
:101380002F4B9A4204D13B1C08339B69BB6203E09C
:101390003B1C08339B68BB627B681A6880231B0276
:1013A000134014D0BB6A5A003B681B68101C191C00
:1013B00000F038FB031CFB62BB6A5A003B681B68E9
:1013C000101C191C00F072FB0B1C7B6210E03B68C8
:1013D0001B68B86A191C00F025FB031CFB623B6804
:1013E0001B68BA6A101C191C00F060FB0B1C7B62A6
:1013F0003B681B685A087B6A9A4202D8FB6A013331
:10140000FB627B681A6880231B0213400AD0FA6AC9
:101410000F2313405B087B62FA6A0A4B1A407B6A0F
:101420001343FB62FB6A9AB27B689A81BD460CB09B
:1014300080BDC046FFCFFFFFF3E9FFFFFFFCFFFFCA
:1014400000380140F0FF000080B582B000AF786046
:101450000A1CFB1C1A70FB1C1B78002B06D07B6837
:101460001B6801221A437B681A6007E07B681B68CF
:101470000122191C91430A1C7B681A60BD4602B008
:1014800080BDC04680B582B000AF78600A1CBB1C2E
:101490001A80BB1C1B88DB05DB0D9AB27B681A85A2
:1014A000BD4602B080BDC04680B582B000AF786056
:1014B0007B689B8C9BB2DB05DB0D9BB2181CBD4689
:1014C00002B080BD80B588B000AFF860B960FB1D88
:1014D0001A700023BB6100237B6100233B61002362
:1014E000FB61FB68FB61BB689BB21B0A9BB2BB61E3
:1014F000BA68FF2313407B617B690122111C99406C
:101500000B1C3B61BB69022B03D1FB690433FB61FC
:1015100005E0BB69032B02D1FB690833FB61FB1DAE
:101520001B78002B06D0FB69FA6911683A690A43F7
:101530001A6006E0FB69FA6912683969C9430A4012
:101540001A60BD4608B080BD80B584B000AF786039
:1015500039603B1C0F3300221A707B68DB693A68E4
:10156000134004D03B1C0F3301221A7003E03B1CD4
:101570000F3300221A703B1C0F331B78181CBD461A
:1015800004B080BD80B586B000AF786039600023BC
:10159000FB6000237B610023BB603B1C13330022F4
:1015A0001A703B689BB21B0A9BB2BB603A68FF2370
:1015B00013407B617B690122111C99400B1C7B61EC
:1015C000BB68012B05D17B681A687B6913407B617E
:1015D0000DE0BB68022B05D17B685A687B6913401C
:1015E0007B6104E07B689A687B6913407B613B68A0
:1015F0001B0CFB60FB680122111C99400B1CFB605B
:101600007B68DA69FB681340FB607B69002B07D0BD
:10161000FB68002B04D03B1C133301221A7003E03B
:101620003B1C133300221A703B1C13331B78181C0D
:10163000BD4606B080BDC04680B500AF1B4B1B4AFF
:10164000126801210A431A60184B184A5168184A57
:101650000A405A60154B154A1168164A0A401A602A
:10166000124B124A1168144A0A401A600F4B0F4A73
:101670005168124A0A405A600C4B0C4AD26A0F2138
:101680008A43DA62094B094A116B0D4A0A401A6310
:10169000064B064A526B01218A435A63034B0022D0
:1016A0009A6000F00FF8BD4680BDC04600100240B1
:1016B0000CB8FFF8FFFFF6FEFFFFFBFFFFFFC0FFC8
:1016C000ACFEFFFF80B582B000AF00237B6000233B
:1016D0003B60314B304A1268802149020A431A604C
:1016E0002D4B1A6880239B0213403B607B680133BB
:1016F0007B603B68002B04D17A68A023DB009A4210
:10170000EED1254B1A6880239B02134002D001239F
:101710003B6001E000233B603B68012B38D11F4B4D
:1017200011221A601C4B1C4A52685A601A4B1A4A02
:1017300052685A60184B184A5168194A0A405A6050
:10174000154B154A5268882149030A435A60124BC7
:10175000114A1268802149040A431A60C0460E4BA0
:101760001A6880239B041340F9D00B4B0A4A526835
:1017700003218A435A60084B074A526802210A43F0
:101780005A60C046044B5A680C231340082BF9D109
:10179000BD4602B080BDC04600100240002002409D
:1017A000FFFFC0FF80B584B000AF78600023FB600E
:1017B000314BFB607B689B79002B4DD02E4B2E4A22
:1017C00011687A681268D2430A401A602A4B2A4A82
:1017D00051687A681268D2430A405A607B681B7964
:1017E000FA68D318FB60FB68FA6811687A681268B7
:1017F0000A431A60204B204A91687A681268D243E3
:101800000A409A601C4B1C4AD1687A681268D2431D
:101810000A40DA607B685B79102B0ED1164B164AB2
:1018200091687A6812680A439A60134B124AD16829
:101830007A6812680A43DA601BE00F4BFB607B6832
:101840005B79FA68D318FB60FB68FA6811687A68FC
:1018500012680A431A600CE07B681B79FA68D31897
:10186000FB60FB68FA6811687A681268D2430A4024
:101870001A60BD4604B080BD0004014080B584B04C
:1018800000AF78603B1C0F3300221A700023BB604E
:101890000E4B1B687A681340BB600C4B5B697A681F
:1018A000134007D0BB68002B04D03B1C0F33012230
:1018B0001A7003E03B1C0F3300221A703B1C0F33DD
:1018C0001B78181CBD4604B080BDC0460004014012
:1018D00080B582B000AF7860024B7A685A61BD462D
:1018E00002B080BD00040140B0B584B000AF0A1C56
:1018F000FB1D011C1970BB1D1A700023FB60BB1D72
:101900001A78032313409B000F22111C99400B1CD3
:10191000FB60184BBA1D12789208D2B21549B81D57
:1019200000788008C0B2023080004158F868C04397
:10193000014002329200D1500E4BBA1D127892082B
:10194000D2B20C49B81D00788008C0B202308000C5
:101950004058F91D0C78B91D0D78032129408900E4
:10196000251C8D40291C014302329200D150BD46F6
:1019700004B0B0BD0000014080B584B000AF786015
:101980000023FB607B689B78002B3CD0244B7A685B
:1019900012789208D2B2C0329200D358FB607B68B2
:1019A0001B781A1C03231340DB00FF22101C9840F5
:1019B000031CDA43FB681340FB607B685B789A0189
:1019C000FF231A407B681B78191C03230B40DB00A4
:1019D000111C99400B1CFA681343FB60104B7A688A
:1019E00012789208D2B2C0329200F968D1500C4BF2
:1019F0007A681278111C1F220A400121081C9040AD
:101A0000021C1A6009E0064A7B681B78191C1F2318
:101A10000B40012199408023D150BD4604B080BDC8
:101A200000E100E0002934D00123002210B48842F4
:101A30002CD301242407A14204D2814202D20901FD
:101A40001B01F8E7E400A14204D2814202D249001E
:101A50005B00F8E7884201D3401A1A434C08A042C1
:101A600002D3001B5C0822438C08A04202D3001B57
:101A70009C082243CC08A04202D3001BDC0822436E
:101A8000002803D01B0901D00909E3E7101C10BC92
:101A90007047002801D00020C04307B4024802A1CB
:101AA0004018029003BDC046190000000029F0D084
:101AB00003B5FFF7B9FF0EBC4243891A1847C04669
:101AC0007047C046F0B5830700D181E0541E002A5C
:101AD0007DD0CDB2031C0326E70711D5431C05704A
:101AE000334211D01D700133941E33420CD0621E5C
:101AF000002C6CD01D700133141C334204D0013C07
:101B00001D7001333342F2D1032C49D9FF220A4020
:101B100017023A4315042A430F2C5CD9261C103EA9
:101B2000370901373D015E19103DEF061A605A6012
:101B30009A60DA601033FD0F9E4213D0002D06D05C
:101B40001A605A609A60DA6010339E420AD01A60B6
:101B50005A609A60DA601A615A619A61DA612033D8
:101B60009E42F4D10F231C40351C331C032C17D983
:101B7000261FB7080137BE00AB19043E770704C51E
:101B8000FE0F9D420AD0002E02D004C59D4205D012
:101B90002F1C04C76A603D1D9D42F9D103221440E9
:101BA000002C14D01C19DD43C9B266190127197025
:101BB00001333E40A3420AD0002E03D019700133F6
:101BC000A34204D0197059700233A342FAD1F0BD78
:101BD000031C141C98E71D1CCAE7C04602780B784A
:101BE00001300131002A01D09A42F7D0D01A704753
:101BF000F0B5061C0020002A2ED00B1C33439C0796
:101C00002BD0013A30780D78A84224D1002A47D051
:101C1000002845D0741CB7183B1B0131DA0716D5D4
:101C200020780D78A84216D1002839D0013401312E
:101C30000DE0BC4234D0002832D060784D78661C6C
:101C40004A1CA84207D100282AD0741C511C2078B5
:101C50000D78A842EDD0401BF0BD032AD1D93368DE
:101C60000D68AB42CDD1141F002CF5D0264FDD19E5
:101C7000264F9D433D42EFD1301C630731D5351DC2
:101C80000B1D2E6819688E4235D1141C083C002C9F
:101C900006D01D4A281CB518B543191C3D4220D05A
:101CA0000020D9E742684868824224D1043C002CD5
:101CB000F6D0154E281C911991439C463942EFD11C
:101CC000043504332E6819688E4214D1043C002C6C
:101CD000E6D00D4B6146F518B543043004313D4262
:101CE000DED1051D0B1D032CDCD8621E002C06D096
:101CF000191C2E1C86E7621E191C2E1C82E7007917
:101D00000D79401BA8E7C046FFFEFEFE8080808064
:101D1000F0B544464D465F465646F0B49046012223
:101D200083B05342944601240025019363198B42EA
:101D30000CD2019AC75C8618365DB74234D21D1C9E
:101D400001249F1A6319BC468B42F2D301276446D3
:101D5000012546467A423460AA4601240025914670
:101D6000631999420ED98346CB445A46C75C165D27
:101D7000B74221D94F461D1C0124DA1B6319924634
:101D80009942F0D80199484601300131884201D288
:101D9000E246081C54464646346003B03CBC9046BC
:101DA0009946A246AB46F0BDB7420DD0012301953E
:101DB0009C4601350124B9E7B74209D00123A94661
:101DC0009A4601350124CBE7644505D00134ADE7DF
:101DD000544505D00134C3E7A4461D1C0124A5E7E2
:101DE000A2461D1C0124BBE7F0B55F4656464D4692
:101DF0004446F0B4A74C071CA544101C0E1C141C30
:101E0000191C03AA1D1CFFF783FFFFA9834604AB1F
:101E100014311A1C20C25D60131D8B42F9D16A1E59
:101E2000002D22D023780120011C9B0004A8C25061
:101E300001231140AB4218D0002907D0E15C04A86F
:101E40008B00A91EC1500223AB420ED0B446E65C03
:101E5000D01AB100013304AE7050E15CD01A890091
:101E600001337050AB42F2D16646039A201CA11890
:101E70005A4600F0EBFA002800D094E000236A1ED6
:101E80000120594692469C469846431A321CB94650
:101E9000019357466646AA4645465544484680182B
:101EA0000021AA1A00F042FA002873D1002D71D047
:101EB00049464B19013B1A7804A990000A58002A98
:101EC0000AD0002E04D00398824201D251460A1A49
:101ED000904400262A1CDFE7331E5B4500D25B4698
:101EE000BB4221D24A464244E05CD15C884213D1D5
:101EF000D843C119C80703D50133BB4208D313E047
:101F00000133BB4210D2E05CD15C884204D1013382
:101F1000E05CD15C8842F3D0019A161C4644F31869
:101F2000984600262A1CB7E75B46013B5E4500D376
:101F3000A9E049464144E05CCA5C904200D0A2E07E
:101F4000981BC0071AD4AC460AE0A55C885C8542A1
:101F500009D1131C013AA55C885C854203D1131C8E
:101F60005A1E9E42F1D3654601369E4200D98CE04E
:101F7000039E5346B0442A1C9E1B8DE75A46023AE4
:101F80009E42F1D2A05C8446885C8445ECD1131C4F
:101F9000AC46E5E7002040498D443CBC904699465C
:101FA000A246AB46F0BD5B46E91A594569D30131FB
:101FB000002003910123594682466A1E581AB846EA
:101FC000311C57460190161CAA4655467D194346BA
:101FD00058186A1A002100F0A9F90028DAD1002D5A
:101FE000D8D0424651190139087804AA8300D15843
:101FF000002924D14046C019B34523D24346D819FD
:102000005B46E15CC25C914214D1DA439119C90785
:1020100004D55B460133B34208D313E00133B34226
:1020200010D2E15CC25C914204D10133E15CC25C3C
:102030009142F3D00198291CC719FF18C5E77F18F2
:10204000291CC2E75B46013BA5D3E15CC25C91421F
:1020500013D1DA070BD55B46023BE15CC25C9142CF
:1020600005D00AE0023BE15CC25C914205D15A1EF8
:1020700091D3A15C825C9142F4D00398291C3F1853
:10208000A3E7594693E75B466EE74C464746E0199F
:1020900081E7C046ECFBFFFF14040000F0B55F468B
:1020A000564644464D46F0B4067885B0071C0C1CD5
:1020B000002E00D132E10B78002B14D00D1C011C36
:1020C000012002E02B78002B0BD00131F31A0E789F
:1020D0005A42534118400135002EF3D12A78002A84
:1020E00009D1002809D0381C05B03CBC904699465F
:1020F000A246AB46F0BD0027F5E7781C217800F03A
:10210000FFF92D1B061EF6D0012D00D19FE0012006
:102110007F198046BE4201D8B91B88461F2D07D9BA
:10212000301C4146221C2B1CFFF75EFE071CDAE721
:10213000291C03AA201CFFF7EBFD039A071CA1181A
:10214000201C3A1C00F082F9002800D081E0012117
:102150000023CA1B781E9A4641468346B846019220
:10216000371C2E1C5546AB1978185A1A002199466F
:1021700000F0DCF80028BED148460028BBD053460A
:10218000C24500D243469E421ED9FA18E15C505D1A
:10219000814247D1DA439119C80712D501339E42D3
:1021A00012D97819E15CC25C91420AD03AE07A19FE
:1021B000E05CD15C884235D10133E05CD25C904276
:1021C00030D101339E42F2D85B46D04500D8A8E01A
:1021D0007919E05CCA5C904200D0A2E05246981A9D
:1021E000C00726D4AC465546B2460AE0A65C885CD9
:1021F000864209D1131C013AA65C885C864203D151
:10220000131C5A1E9D42F1D35646AA4665465146B6
:102210000131994200D986E0039B4946F21AED1834
:102220009246A0E701994D19ED1800239A464946B8
:1022300099E75A46013ADA45E9D2A05C8446885CBF
:102240008445E4D1AC46131C5546B246D9E7071C79
:1022500049E7EB1BBB4200D23B1C013301217A1E34
:1022600003930020CB1B9346B2464246061C984679
:1022700071195046894680188A1A002100F056F8D4
:10228000002800D037E74B46002B00D133E75246F9
:102290009219BD4220D95146CB199A5DE05D944612
:1022A0003B1C8A19604513D1F9434819C00703D56F
:1022B0007B1C9D4208D80FE001339D420CD9E05CA5
:1022C000D15C884204D10133E05CD15C8842F3D018
:1022D0004644F6184A46CBE75B46591C18D0E05CEA
:1022E000D15C884216D15846C0070FD55B46013BEA
:1022F000E05CD15C884209D00CE0605C515C8842B3
:1023000008D1023BE05CD15C884203D1591EF4D273
:10231000171CE8E6039AB6184A46A9E70D1C0120E7
:10232000DCE6434673E73C1C6719DCE6F0B54F4634
:102330004646C0B4CCB2830700D181E0531E002AC8
:1023400000D17BE00578A54209D00327DE0717D529
:102350000130384217D0931E0278A24210D10CBC33
:1023600090469946F0BD002B68D00678013BA64206
:10237000F5D00130384206D00278013BA242EED0BF
:1023800001303842EFD1032B3AD9FF2529400F0203
:1023900039430D040D43191F4A07D70F0268B84689
:1023A000284F6A40BF18284E97438946011D37427F
:1023B00026D14B46032B22D94046002809D0081CC1
:1023C0000268204F6A40BF1897430431374213D048
:1023D00016E0081C02681B4F04316A408C46D11974
:1023E000914331420CD160460268043B6A40BF18F9
:1023F0009743011D374203D1043B032BE9D8081C46
:10240000002B1BD00578A542A9D0451CC3185E1B24
:10241000F70710D5281C01780135A1429FD0281E4E
:1024200098420BD02A786F1CA24298D03E78381C74
:102430007D1CA64293D0281E9842F3D100208EE73F
:10244000131CA0E7FFFEFEFE80808080F0B5032A0B
:1024500032D90B1C03439C0730D1151F6C07E60FC4
:10246000B4460F680668031D0C1DBE4224D12A1E07
:10247000032A1FD96046002808D0211C181C0568B3
:102480000E6804330434B54211D015E0211C181C29
:1024900007680D6804330434AF420DD1211C181CA9
:1024A00006680F68043A04330434BE4204D1043A87
:1024B000032AEBD8211C181C002A1ED004780D78A2
:1024C000AC420AD1431C8218D01AC60712D501317A
:1024D0001C780D780133AC420CD0601B0EE01C78E8
:1024E0004D785F1CAC42F8D15C787578711C7B1C10
:1024F000AC42F2D14E1C9342F1D10020F0BDC04657
:10250000CAB2F0B5002A33D083070ED00378002B6F
:1025100058D09A424FD0032504E00478002C51D0C3
:10252000A24248D001302842F7D1FF242140076859
:10253000254B0D022943FC18244D0E04BC433143A6
:102540002C423CD1204E4F40BB19BB432B4236D1CD
:10255000041D05E01C4E4B409F199F432F422ED176
:10256000201C194E08CC9F199F432F42F2D026E021
:1025700085070AD00678002E1DD0032402E00678D5
:10258000002E18D001302042F9D107680E4B0F4DB4
:10259000F918B943294207D1041D201C0A4F40CC29
:1025A000F319B3432B42F8D00278002A03D001304C
:1025B0000578002DFBD1F0BD8A42FCD001300178B6
:1025C0000029F9D10020F6E7FFFEFEFE8080808022
:1025D00074782D31323334353600000072785F69FB
:1025E000642D3132333435360000000041540D0A79
:1025F0000000000041542B414444523F0D0A0000AA
:10260000310D0A004C4544204F4E0D0A00000000D9
:10261000300D0A004C4544204F46460D0A0000008C
:102620004552524F523A2830290D0A004F4B0D0A9D
:0426300000000000A6
:102634000000000001020304010203040607080964
:08264400D0250008DC25000888
:0400000508000000EF
:00000001FF
