:020000040800F2
:10000000380900209D0500080906000809060008B7
:10001000090600080906000809060008000000009B
:1000200000000000000000000000000009060008B9
:10003000090600080000000009060008090600087B
:100040000906000809060008090600080906000854
:100050000906000809060008090600080906000844
:100060000906000809060008090600080906000834
:100070000906000809060008090600080906000824
:100080000906000809060008090600080906000814
:100090000906000809060008090600080906000804
:1000A00009060008090600080906000809060008F4
:1000B00009060008090600080906000809060008E4
:1000C00009060008090600080906000809060008D4
:1000D0000906000809060008590700080906000873
:1000E00009060008090600080906000809060008B4
:1000F00009060008090600080906000809060008A4
:100100000906000809060008090600080906000893
:100110000906000809060008090600080906000883
:100120000906000809060008090600080906000873
:100130000906000809060008090600080906000863
:100140000906000809060008090600080906000853
:100150000906000809060008090600080906000843
:100160000906000809060008090600080906000833
:100170000906000809060008090600080906000823
:10018000090600080906000880B58AB000AF78604B
:1001900039604FF000037B624FF000033B624FF089
:1001A0000003FB614FF00003BB617B681B8A9BB2BD
:1001B0007B627B6A23F440537B623B68DB887A6A0C
:1001C00013437B627B6A9AB27B681A827B689B8945
:1001D0009BB27B627B6A23F4B05323F00C037B62F7
:1001E0003B689A883B681B8913439AB23B685B89DA
:1001F00013439BB27A6A13437B627B6A9AB27B6831
:100200009A817B689B8A9BB27B627B6A23F44073F2
:100210007B623B689B897A6A13437B627B6A9AB2F2
:100220007B689A8207F10803184600F0E5FB7A68BC
:100230004FF48053C4F201039A4206D07A684FF417
:10024000A053C4F201039A4202D17B693B6201E0F0
:100250003B693B627B689B899BB29BB21BB2002BC4
:100260000FDA3A6A13464FEA83039B184FEA830278
:100270009A183B681B684FEA4303B2FBF3F3FB6138
:100280000EE03A6A13464FEA83039B184FEA830253
:100290009A183B681B684FEA8303B2FBF3F3FB61D8
:1002A000FA6948F21F53C5F2EB13A3FB02134FEA9E
:1002B00053134FEA03137B627B6A4FEA13134FF029
:1002C000640202FB03F3FA69D31ABB617B689B8962
:1002D0009BB29BB21BB2002B12DABB694FEAC3037D
:1002E00003F1320248F21F53C5F2EB13A3FB0213D2
:1002F0004FEA531303F007037A6A13437B6211E05A
:10030000BB694FEA031303F1320248F21F53C5F2EF
:10031000EB13A3FB02134FEA531303F00F037A6AA4
:1003200013437B627B6A9AB27B681A8107F12807C4
:10033000BD4680BD80B483B000AF78607B684FF06D
:1003400000021A807B684FF000025A807B684FF0F1
:1003500000029A807B684FF00002DA8007F10C07F8
:10036000BD4680BC704700BF80B483B000AF7860EA
:100370000B46FB70FB78002B08D07B689B899BB2F7
:1003800043F400539AB27B689A8107E07B689B89AB
:100390009BB223F400539AB27B689A8107F10C0751
:1003A000BD4680BC704700BF80B483B000AF7860AA
:1003B0000B467B807B884FEAC3534FEAD3539AB2F4
:1003C0007B689A8007F10C07BD4680BC704700BF70
:1003D00080B483B000AF78607B689B889BB24FEAA3
:1003E000C3534FEAD3539BB2184607F10C07BD46DF
:1003F00080BC704780B487B000AF786013460A466F
:100400007A807B704FF000033B614FF00003FB608C
:100410004FF00003BB604FF000037B617B687B61A2
:100420007B88DBB24FEA5313DBB23B617B8803F07E
:100430001F03FB60FB684FF0010202FA03F3BB608D
:100440003B69012B04D17B6903F10C037B610BE059
:100450003B69022B04D17B6903F110037B6103E04C
:100460007B6903F114037B617B78002B06D07B69E9
:100470007A691168BA680A431A6007E07B697A6989
:100480001168BA686FEA02020A401A6007F11C0795
:10049000BD4680BC704700BF80B485B000AF7860B7
:1004A0000B467B804FF00003FB737B681B889AB27E
:1004B0007B8813409BB2002B03D04FF00103FB73EA
:1004C00002E04FF00003FB73FB7B184607F11407B3
:1004D000BD4680BC704700BF80B487B000AF786075
:1004E0000B467B804FF00003FB604FF000037B6105
:1004F0004FF00003BB604FF00003FB747B88DBB25E
:100500004FEA5313DBB2BB607B8803F01F037B61B0
:100510007B694FF0010202FA03F37B61BB68012B98
:1005200006D17B689B899BB27A6913407B610FE09F
:10053000BB68022B06D17B681B8A9BB27A69134089
:100540007B6105E07B689B8A9BB27A6913407B6183
:100550007B884FEA13239BB2FB60FB684FF00102DC
:1005600002FA03F3FB607B681B889BB2FA681340B6
:10057000FB607B69002B06D0FB68002B03D04FF09B
:100580000103FB7402E04FF00003FB74FB7C184690
:1005900007F11C07BD4680BC704700BF80B582B024
:1005A00000AF42F2FC13C0F600037B6040F2000390
:1005B000C2F200033B600BE07B681A683B681A607C
:1005C0003B6803F104033B607B6803F104037B6039
:1005D0003A6840F21403C2F200039A42ECD308488E
:1005E00008494FF000028842B8BF40F8042BFFF6DC
:1005F000FAAF00F00DF807F10807BD4680BD000016
:10060000140000203401002080B400AFFEE700BFDA
:1006100080B500AF00F0F0F800F09EFC00F08EFC1A
:1006200000F0D6F900F098FC00F0D2F900F0A2FC3E
:1006300000F0CEF941F65870C0F6000000F0B6F8B0
:100640004FF4FA6000F09AF900F0C2F900F084FD6E
:1006500000F0BEF900F026FD00F0BAF900F098FCB9
:1006600000F0B6F941F66470C0F6000041F66C7116
:10067000C0F6000100F09AFC00F0AAF900F020FD9D
:1006800000F0A6F94FF0010000F074FD00F0A0F9B1
:1006900041F67C70C0F6000000F088F84FF4FA6074
:1006A00000F06CF900F094F940F20003C2F200038C
:1006B0001B68184600F028FF03461A4640F2301324
:1006C000C2F200031A6041F6A070C0F6000000F00C
:1006D0006DF840F23013C2F200031B68184600F0B8
:1006E00065F841F6AC70C0F6000000F05FF841F22A
:1006F000883000F043F940F21400C2F200004FF0DD
:100700003E0100F025FE024641F6B073C0F600033C
:100710009A4219D041F6B470C0F6000000F046F8D5
:1007200042F2107000F02AF900BF40F21400C2F249
:10073000000041F6DC71C0F600014FF0040200F049
:1007400013FF0346002BF0D100F042F900F030FD1A
:1007500000F03EF962E700BFB0B500AF4FF488404B
:10076000C4F2000040F22551FFF7B6FE0346002B0D
:100770001AD040F22D13C2F200031C7825464FF424
:100780008840C4F20000FFF723FE0346DAB240F2CD
:100790001403C2F200035A5504F10103DAB240F225
:1007A0002D13C2F200031A70B0BD00BF80B582B035
:1007B00000AF786018E07B681B784FF48840C4F283
:1007C00000001946FFF7F0FD00BF4FF48840C4F267
:1007D00000004FF04001FFF75FFE0346002BF4D00E
:1007E0007B6803F101037B607B681B78002BE2D1FF
:1007F00007F10807BD4680BD80B58AB000AF4FF055
:100800000B004FF0010100F0DDF94FF0010387F814
:1008100024304FF0000387F826304FF440533B62FA
:100820004FF0020387F827304FF0020387F8253096
:1008300007F120034FF44060C4F20200194600F0B3
:1008400015FA4FF0010387F824304FF0000387F8C2
:1008500026304FF002033B624FF0020387F8273047
:100860004FF0020387F8253007F120034FF4806032
:10087000C4F20200194600F0F9F94FF400304FF0CD
:10088000010100F0C9F94FF00000C4F202004FF07E
:1008900002014FF0070200F08BFA4FF00000C4F2A3
:1008A00002004FF003014FF0070200F081FA4FF011
:1008B000020387F824304FF0000387F826304FF00A
:1008C0000C033B624FF0010387F827304FF002031F
:1008D00087F8253007F120034FF00000C4F2020032
:1008E000194600F0C3F94FF416533B614FF00C0367
:1008F0007B834FF00003BB834FF000033B834FF03B
:100900000003FB824FF00003BB8207F110034FF49A
:100910008840C4F200001946FFF736FC4FF400632C
:100920003B8107F108031846FFF704FD4FF026034B
:100930003B714FF00103FB714FF000037B714FF0EF
:100940000003BB7107F10403184600F085FA4FF469
:100950008840C4F2000040F225514FF00102FFF739
:1009600049FD4FF48840C4F200004FF00101FFF749
:10097000FBFC07F12807BD4680BD00BF80B485B0F1
:1009800000AF78604FF00003FB604FF00003BB60E6
:100990004FF00003FB6011E04FF00003BB6005E087
:1009A00000BF00BFBB6803F10103BB60BB68B3F5C8
:1009B0007A7FF5D9FB6803F10103FB60FA687B6875
:1009C0009A42E9D907F11407BD4680BC704700BFC1
:1009D00080B500AF40F21400C2F200004FF00001F9
:1009E0004FF0FA0200F0F8FB40F22D13C2F20003C0
:1009F0004FF000021A7080BD80B489B000AF7860FB
:100A00004FF00003BB614FF000037B614FF0000328
:100A1000FB614FF002033B614FF00003FB604FF0BE
:100A20000203BB604FF46053C4F202039B6803F0FF
:100A30000C03BB61BB69042B0AD0082B0FD0002B21
:100A400060D17A684FF41053C0F2F403136060E091
:100A50007A6847F64003C0F27D13136059E04FF403
:100A60006053C4F202035B6803F480034FEA9353BC
:100A7000FB604FF46053C4F202035B6803F03F0372
:100A8000BB60FB68002B14D047F64003C0F27D1317
:100A9000BA68B3FBF2F24FF46053C4F20203596830
:100AA00047F6C0730B404FEA931303FB02F3FB615D
:100AB00013E04FF41053C0F2F403BA68B3FBF2F240
:100AC0004FF46053C4F20203596847F6C0730B40F9
:100AD0004FEA931303FB02F3FB614FF46053C4F23C
:100AE00002035B6803F440334FEA134303F101034D
:100AF0004FEA43033B61FA693B69B2FBF3F27B685F
:100B00001A6006E07A684FF41053C0F2F4031360E1
:100B100000BF4FF46053C4F202039B6803F0F0037C
:100B2000BB61BB694FEA1313BB6140F20403C2F21D
:100B30000003BA699B181B78DBB27B617B681A687B
:100B40007B6922FA03F27B685A604FF46053C4F267
:100B500002039B6803F4E053BB61BB694FEA932334
:100B6000BB6140F20403C2F20003BA699B181B7810
:100B7000DBB27B617B685A687B6922FA03F27B688F
:100B80009A604FF46053C4F202039B6803F460431D
:100B9000BB61BB694FEA5333BB6140F20403C2F24D
:100BA0000003BA699B181B78DBB27B617B685A68CB
:100BB0007B6922FA03F27B68DA6007F12407BD46FD
:100BC00080BC704780B483B000AF78600B46FB7088
:100BD000FB78002B0CD04FF46053C4F202034FF4A7
:100BE0006052C4F20202116B7A680A431A630DE084
:100BF0004FF46053C4F202034FF46052C4F2020295
:100C0000116B7A686FEA02020A401A6307F10C0757
:100C1000BD4680BC704700BF80B483B000AF786031
:100C20000B46FB70FB78002B0CD04FF46053C4F2E2
:100C300002034FF46052C4F20202116C7A680A4354
:100C40001A640DE04FF46053C4F202034FF4605293
:100C5000C4F20202116C7A686FEA02020A401A6456
:100C600007F10C07BD4680BC704700BF80B487B059
:100C700000AF786039604FF000037B614FF00003F4
:100C80003B614FF00003FB604FF000037B6186E0A7
:100C90007B694FF0010202FA03F33B613B681A687B
:100CA0003B691340FB60FA683B699A4273D17B68E9
:100CB0001A687B694FEA43034FF0030101FA03F31B
:100CC0006FEA03031A407B681A607B681A683B6806
:100CD0001B7919467B694FEA430301FA03F31A4370
:100CE0007B681A603B681B79012B03D03B681B793A
:100CF000022B34D17B689A687B694FEA43034FF03B
:100D0000030101FA03F36FEA03031A407B689A6058
:100D10007B689A683B685B7919467B694FEA4303B5
:100D200001FA03F31A437B689A607B685A687B690F
:100D30009BB24FF0010101FA03F36FEA03031A407B
:100D40007B685A607B685A683B689B7919467B6967
:100D50009BB201FA03F39BB21A437B685A607B682B
:100D6000DA687B699BB24FEA43034FF0030101FA53
:100D700003F36FEA03031A407B68DA607B68DA6882
:100D80003B68DB7919467B694FEA430301FA03F3B9
:100D90001A437B68DA607B6903F101037B617B693D
:100DA0000F2B7FF675AF07F11C07BD4680BC70475F
:100DB00080B485B000AF786013460A467A807B70B5
:100DC0004FF00003FB604FF00003BB607A787B8834
:100DD00003F007034FEA830302FA03F3FB607B8807
:100DE0004FEAD3039BB21A467B884FEAD3039BB2E8
:100DF00019467B6801F1080153F821107B8803F044
:100E000007034FEA83034FF00F0000FA03F36FEA82
:100E1000030319407B6802F1080243F822107B8823
:100E20004FEAD3039BB21A467B6802F1080253F8DB
:100E30002220FB681343BB607B884FEAD3039BB23D
:100E40001A467B6802F10802B96843F8221007F1DC
:100E50001407BD4680BC704780B485B000AF786091
:100E60004FF00003FB734FF00003BB734FF00F0311
:100E70007B737B68DB78002B45D04FF46D43CEF25B
:100E80000003DB686FEA030303F4E0634FEA132314
:100E9000FB73FB7BC3F10403BB737A7BFB7B42FADE
:100EA00003F37B737B685B781A46BB7B02FA03F320
:100EB000FB737B689A787B7B1340DAB2FB7B13432E
:100EC000FB73FB7B4FEA0313FB734FF46143CEF2DA
:100ED00000037A6812789B18FA7B83F800234FF49A
:100EE0006143CEF200037A6812784FEA5212D2B20E
:100EF0007968097801F01F014FF0010000FA01F153
:100F000043F8221014E04FF46143CEF200037A68F4
:100F100012784FEA5212D2B27968097801F01F01B3
:100F20004FF0010000FA01F102F1200243F8221013
:100F300007F11407BD4680BC704700BF80B500AF05
:100F400041F6E470C0F60000FFF730FC4FF064009B
:100F5000FFF714FD80BD00BF80B500AF41F6EC7017
:100F6000C0F60000FFF722FC4FF4FA70FFF706FD11
:100F700080BD00BF80B500AF42F20000C0F60000A7
:100F8000FFF714FC4FF4FA70FFF7F8FC80BD00BFC8
:100F900080B500AF42F20C00C0F60000FFF706FC7F
:100FA00041F28830FFF7EAFC80BD00BF80B590B009
:100FB00000AF7860396042F22402C0F6000207F107
:100FC0000C0307CA03C31A8007F116024FF0280367
:100FD00010464FF000011A4600F0FEF807F10C032E
:100FE000184600F091FA034607F10C02D21842F2BB
:100FF0001803C0F600031B88138007F10C03184682
:10100000796800F07FF907F10C03184600F07CFACC
:10101000034607F10C02D21842F21803C0F600038F
:101020001B88138007F10C03184600F06DFA034685
:1010300007F10C02D21842F21C03C0F600031B8811
:10104000138007F10C03184600F05EFA034607F11F
:101050000C02D21842F21803C0F600031B8813805A
:1010600007F10C031846396800F04CF907F10C033E
:10107000184600F049FA034607F10C02D21842F272
:101080002003C0F600031868106007F10C0318462F
:10109000FFF78CFB41F28830FFF770FC07F1400747
:1010A000BD4680BD80B500AF42F25800C0F60000DA
:1010B000FFF77CFB4FF4FA70FFF760FC80BD00BFC8
:1010C00080B582B000AF42F28000C0F60000FFF7AA
:1010D0006DFB4FF4FA70FFF751FC4FF000037B609B
:1010E00040F21400C2F2000042F28C01C0F600018E
:1010F00000F0B4FC78607B68002B28D07B6803F19B
:1011000006037B6018E040F22C13C2F200031A7849
:1011100011467B68187840F21013C2F2000358544D
:1011200002F10103DAB240F22C13C2F200031A708A
:101130007B6803F101037B607B681B780D2B06D075
:1011400040F22C13C2F200031B780F2BDBD907F1FE
:101150000807BD4680BD00BF80B500AF42F2041055
:10116000C0F60000FFF722FB4FF47A70FFF706FC91
:1011700080BD00BF80B582B000AF0346FB7142F274
:10118000A810C0F60000FFF711FBFB791846FFF727
:101190000DFB42F22010C0F60000FFF707FB4FF4F2
:1011A000FA70FFF7EBFB07F10807BD4680BD00BFF3
:1011B00080B582B000AF0346FB7142F2EC10C0F67E
:1011C0000000FFF7F3FA4FF01400FFF7D7FB07F129
:1011D0000807BD4680BD00BFF0B48407034600F099
:1011E0008E80541E002A00F08880E507CEB211D40C
:1011F0001A46671E02F8016B1346154692070FD078
:10120000002C7AD003F8016B9A073C461D4607D0A4
:10121000013CEDE7034603F8016B9A071D46F7D141
:10122000032C52D9CEB246EA06270F2C47EA0743D1
:101230002DD9A4F1100217460F2FC2F300162B6010
:101240006B60AB60EB6005F1100216D93EB1103F48
:10125000136053609360D36010320F2F0DD9203F7D
:1012600002F11006136053609360D3601361536101
:101270009361D36120320F2FF1D8A4F1100222F034
:101280000F0204F00F041032032C15441DD9271F40
:101290003E462A46032E42F8043BC7F380070DD989
:1012A00027B1043E032E42F8043B07D91746083EF7
:1012B00047F8043B53603A1D032EF7D8231F23F051
:1012C0000302131D04F00304ED18B4B12B46C9B298
:1012D00003F8011B2C19ED436219A34202F001052A
:1012E0000BD01DB103F8011BA34206D01A4602F829
:1012F000011B5970531CA342F8D1F0BC704705463E
:1013000014468DE7830770B5064614D10368A3F130
:10131000013222EA030010F0803F0CD1331D1A463F
:1013200053F8044BA4F1013525EA040414F0803F7E
:10133000F5D0104600E0304603782BB1421C104631
:1013400001320478002CFAD100F080F8304670BDEC
:10135000C9B2F0B400294BD082070FD00278002A1E
:1013600071D0914242D0431C05E013F8012B002AB2
:101370003BD091423AD09A071846F6D10368A3F1C0
:10138000013222EA030241EA012712F0803F47EAD4
:1013900007471CD17B40A3F1013222EA030313F07B
:1013A000803F14D1021D02E014F0803F0FD110469F
:1013B00052F8043BA3F1013687EA030426EA03034B
:1013C000A4F1013513F0803F25EA0404ECD0027843
:1013D000002A38D0914209D0431C01E0914205D047
:1013E000184613F8012B002AF8D11046F0BC7047BC
:1013F00083070BD00278002AF8D0431C03E0017861
:1014000001330029F2D099071846F8D10168A1F1FB
:10141000013323EA010212F0803F0AD1031D18466E
:1014200053F8041BA1F1013424EA010212F0803FB9
:10143000F5D00378002BD9D0411C08460131027841
:10144000002AFAD1D2E71046D0E700BF80EA0102B5
:10145000844612F0030F4FD111F0030F32D14DF833
:10146000044D11F0040F51F8043B0BD0A3F10132ED
:101470009A4312F0803F04BF4CF8043B51F8043B00
:1014800016D100BF51F8044BA3F101329A4312F078
:10149000803FA4F101320BD14CF8043BA24312F07F
:1014A000803F04BF51F8043B4CF8044BEAD023467C
:1014B0000CF8013B13F0FF0F4FEA3323F8D15DF82E
:1014C000044B704711F0010F06D011F8012B0CF8F6
:1014D000012B002A08BF704711F0020FBFD031F86E
:1014E000022B12F0FF0F16BF2CF8022B8CF80020F5
:1014F00012F47F4FB3D1704711F8012B0CF8012B78
:10150000002AF9D1704700BF20F0030110F003005A
:10151000C0F1000051F8043B00F1040C4FEACC0C80
:101520006FF000021CBF22FA0CF213434FF0010CC3
:101530004CEA0C2C4CEA0C4CA3EB0C0222EA030202
:1015400012EACC1204BF51F8043B0430F4D013F07B
:10155000FF0F1FBF013013F47F4F013013F47F0FD3
:1015600018BF0130704700BFF0B4002A00F083803C
:1015700041EA000313F003052ED0551E03780A78C4
:10158000934226D1002D7AD0002B7AD001358C1CC5
:101590004D192B1BDB0716D510F8013F14F8012C51
:1015A000934216D1CC1C73B936E0AC4234D001342E
:1015B000002B31D010F8013F14F8012C934208D1D0
:1015C0000134002B28D014F8012C10F8013F93426D
:1015D000EBD0981AF0BC7047032ACED904680B6888
:1015E0009C42CAD1131F4CD0A4F1013222EA040458
:1015F00014F0803F43D15A072FD54C68426804311C
:101600000430A24239D1043B06D0A2F1013424EACD
:10161000020212F0803F20D00020DBE7726864688D
:10162000A2F10135A24225EA020526D1043B00F1D0
:10163000040001F10401EFD015F0803FECD1DCF89B
:1016400004207C68A2F10135A24225EA020514D1EA
:10165000043BE1D015F0803FDED10C460646043154
:101660000430032B84460F46D8D85D1E002B85D14D
:1016700033792279ADE71046ACE75D1E7EE7284658
:10168000A8E71846A6E700BF2DE9F00701273C466A
:1016900000254FF0FF3663198B4200EB060C0DD28C
:1016A0001CF804A010F80380D0452ED201241D465A
:1016B0009F1B63198B4200EB060CF1D34FF0010A1C
:1016C0001760544600254FF0FF3C6319994200EB28
:1016D0000C080ED918F8048010F80390C1451AD9E7
:1016E00001241D46CCEB030A6319994200EB0C0858
:1016F000F0D80CF101000136B0423CBFBA4630468A
:10170000C2F800A0BDE8F00770470BD001272E46B5
:101710003C46ED19BFE709D04FF0010AAC465446EC
:101720005544D2E7BC4205D00134B4E7544505D056
:101730000134CAE727461D460124ACE7A2461D46F0
:101740000124C2E72DE9F04FADF2244D16460746BD
:101750000C461046194607AA1D46FFF795FF07AB32
:1017600001900DF21C411A1D5D6008338B425560DB
:10177000F9D11DB33278012308A8691EAB4240F8A5
:10178000221001EA030219D03AB17278022301F162
:10179000FF3EAB4240F822E010D0A146A8465C1CB8
:1017A00016F803C0325DCD1A02330C1B434540F8D6
:1017B0002C5040F82240F2D14C4645460799019AF8
:1017C0003046711800F062FB002840F0BE80DDF862
:1017D0000490DDF804E0029509F1FF3B06EB0B0CE9
:1017E000CDF80CB0CEF1010B2246824605F1FF394F
:1017F000CDF810C0CDF814B0044608E024B1079C21
:10180000A34201D202990B1B9A4400242A46029D4E
:101810005544B8180021AA1A00F098FA002840F0A0
:101820008E80002D00F08B80791908A811F8013CFA
:1018300050F82330002BE1D1019B9C4228BF234666
:101840004B452AD207EB0A0116F803B0CA5C934550
:1018500006EB03006FD16FEA030C0CEB090E1EF0D0
:10186000010F024616D001334B4516D2407811F8CD
:1018700003B0013283450DD05DE012F8010F11F87D
:1018800003C0844557D1013312F8010F11F803E06A
:10189000864550D101334B45EFD3DDF804B0039BAF
:1018A0005C4528BF5B463DD2DDF80CB007EB0A0C67
:1018B00016F80B101CF80B00814240F0CA80DDF8CE
:1018C00010B006EB0408C8EB0B01C8075A4624D534
:1018D000049ADDF80CE012F8010CDDF810B000906D
:1018E0000EF1FF310BF1FF321CF80100DDF800B002
:1018F000834517D10B4610E012F801BC1CF80020FC
:10190000934501F1FF320DD10346013811F801BCB6
:101910001CF800108B4505D10346581E424502F1C4
:10192000FF31E9D101349C4200F29580079C029A74
:10193000A244141B6AE7DDF814B0DA4464E700201F
:1019400009B00DF5806DBDE8F08FDDF804B0019AA7
:10195000DDF80480CBEB0500584538BF5846431CE2
:1019600001980793B118C0F1010305F1FF3B029301
:1019700001954FF0000A02F1FF3923460D46019C04
:101980005444F8180021E21A00F0E0F90028D6D1FA
:10199000002CD4D03A1908A912F8010C51F82000F3
:1019A00000284FD1D84507EB0A002AD210F808309A
:1019B0002A789A4218BF434647D16FEA080303EBDF
:1019C0000B01C9072A46434618D508F101035B45B8
:1019D00017D22A4610F803E012F8011F8E450DD0E9
:1019E00033E012F8011F10F803C08C452DD10133EC
:1019F00012F8011F10F803E08E4526D101335B4534
:101A0000EFD3B9F1FF3F4B469AD016F8091010F802
:101A10000920914215D119F0010F0AD009F1FF33C5
:101A2000F15CC25C914204D00BE0F15CC25C91427B
:101A300007D15A1E002B83D0B15C825C023B9142DD
:101A4000F3D007988244234699E7029A92449A4435
:101A5000F9E7019B66E707EB0A0071E72DE9F04F14
:101A6000037889B005460F46002B00F067810A789D
:101A70009AB184460131012402E011F8012B5AB1D8
:101A8000934214BF002404F001041CF8013F0E46E9
:101A9000002BF2D1307820B92CB1284609B0BDE82E
:101AA000F08F0025F9E7681C3978FFF751FCF61B29
:101AB00080460028F5D0012E00F0BE80AD19A84266
:101AC00094BFC0EB050401241F2E06D921463A46D7
:101AD0003346FFF737FE0546DFE7314607AA3846AB
:101AE000FFF7D2FD07998146791838464A4600F03B
:101AF000CDF9002840F0A28009F1FF3B07EB0B0E67
:101B0000CDF808B0C9F1010BCDF810900546CDF81D
:101B10000CE0CDF814B022468146AC1908EB020067
:101B20000021A21A00F012F90028BAD1002CB8D076
:101B3000049B994528BF4B469E422BD908EB0300D6
:101B4000F95C425D914207EB03006ED16FEA030C32
:101B50000CEB060E1EF0010F024608EB050116D035
:101B600001339E4216D9407811F803C001328445F2
:101B70000DD05AE012F8010F11F803E0864554D158
:101B8000013312F8010F11F803C084454DD1013320
:101B90009E42EFD8049B029A4B4540F2D28008EB5C
:101BA000050EB95C1EF80200814240F0CA80DDF8E3
:101BB0000CB007EB090ACAEB0B01C9075B4624D539
:101BC000039BDDF808B013F8010CDDF80CC00190A0
:101BD0000BF1FF31DDF804B01EF8010083450CF174
:101BE000FF3317D10A4610E013F801BC1EF800308D
:101BF0009B4501F1FF330DD10246013811F801BCBC
:101C00001EF800108B4505D10246501E534503F1C6
:101C1000FF31E9D109F10109914500F29480079A59
:101C2000AD18C2EB0609224677E7DDF814B05D4433
:101C3000ED184FF00009F6E705462EE7C9EB06035D
:101C40004B4538BF4B46581CC9F1010B07EB090E39
:101C500008EB090209F1FF35CDF80CB023460790D7
:101C60004FF0000A02927446AB460AEB060508EBF9
:101C700003000021EA1A00F069F800287FF411AF90
:101C8000002D3FF40EAF4E4598BF08EB0A002AD94D
:101C9000029B217813F80A0081424AD16FEA0902B7
:101CA0009319DB0721464A4608EB0A0018D509F1CB
:101CB0000102964217D9214610F802C011F8013FDF
:101CC0009C450DD036E011F8013F10F802E09E452A
:101CD00030D1013211F8013F10F802C09C4529D1E2
:101CE00001329642EFD8BBF1FF3F5B463FF4F3AEC3
:101CF00017F80B1010F80B20914216D11BF0010FB2
:101D00000AD00BF1FF33F95CC25C914204D00CE0C5
:101D1000F95CC25C914208D15A1E002B3FF4DBAE45
:101D2000B95C825C023B9142F2D0079882442B4618
:101D30009BE74A46039882449244F8E70E46012402
:101D4000A8E6049A66E74544A7E600BF8307F0B417
:101D5000C9B200F09680531E002A00F094800278E9
:101D60008A420BD0421CD8071AD512F0030F104636
:101D70001CD01478013B01328C4211D1F0BC704769
:101D8000002B7CD01278013B8A42F7D014F0030F6D
:101D9000204604F1010209D02478013B8C42EDD0A9
:101DA00012F0030F104602F10104E9D1032B3FD9D1
:101DB000046841EA012545EA054585EA0407A7F1DB
:101DC000013222EA07021E1F041D12F0803FC6F3F3
:101DD00080072DD1032E334629D967B1204604341C
:101DE000066885EA0602A2F1013626EA020212F02E
:101DF000803F19D01CE0261D2046246885EA040295
:101E0000A2F1013424EA020212F0803F10D13468BA
:101E100085EA0402A2F1013424EA0202043B341DE3
:101E200012F0803F304603D1043B032BE3D8204619
:101E30005D1E23B303788B42A0D0431C0022E80729
:101E400014D518460122047801338C4296D095426D
:101E5000184603F1010402F102020ED01B788B42F6
:101E60008CD0631C204624788C4287D0954218463B
:101E700003F1010402F10202F0D100207EE71846CE
:101E80007CE7134692E7104678E700BF032AF0B4D8
:101E900031D941EA00039C072ED106680F68151F4F
:101EA000031D0C1DBE42C5F3800C24D1032D2A4610
:101EB0001FD9BCF1000F08D025681E6821461846BE
:101EC00004340433AE4211D015E01846214623688D
:101ED0000468051D0E1D9C420DD12846314635680B
:101EE0000668043A031D0C1DAE4204D1043A032ACD
:101EF000EBD8214618461AB303780C78A3420AD1CE
:101F0000551E0022EB0714D510F8013F11F8014FC0
:101F10000122A3420DD0181B10E010F8013F11F868
:101F2000014FA342F7D110F8013F11F8014FA3422E
:101F3000F1D1AA4202F10202EFD10020F0BC7047B9
:101F40001046FBE7474554202F20485454502F316A
:101F50002E300D0A0D0A000041542B43574D4F44BB
:101F6000453D3300526F6E616B000000726270611C
:101F70006E6368616C3132330000000041542B43C2
:101F8000495053544152543D22544350222C22670D
:101F90006F6F676C652E636F6D222C38300D0A00F1
:101FA00041542B43495053454E443D000D0A000017
:101FB00000000000474554202F20485454502F3132
:101FC0002E300D0A486F73743A207777772E796137
:101FD000686F6F2E636F6D0D0A0D0A002B49504418
:101FE00000000000415445300D0A000041540D0A24
:101FF0000000000041542B5253540D0A0000000011
:1020000041542B474D520D0A0000000041542B4310
:10201000574C41500D0A0000220000002C00000027
:10202000220D0A0041542B43574A41503D00000005
:1020300000000000000000000000000000000000A0
:102040000000000000000000000000000000000090
:10205000000000000000000041542B43574A41504B
:102060003F0D0A0041542B43575141503D3F0D0A4B
:102070000000000041542B43575141500D0A00000D
:1020800041542B43494653520D0A000053544149D1
:10209000502C000041542B43575341503F0D0A0030
:1020A00041542B43575341503D00000000000000B5
:1020B0000000000000000000000000000000000020
:1020C0000000000000000000000000000000000010
:1020D0000000000000000000000000000000000000
:1020E00000000000000000000000000000000000F0
:1020F00000000000000000000000000000000000E0
:102100000000000041542B43574D4F44453F0D0AFA
:102110000000000041542B43574D4F44453D000003
:102120000D0A000041542B43495053544152543D31
:102130003F0D0A0041542B43495053544152543DE2
:10214000000000000000000000000000000000008F
:10215000000000000000000000000000000000007F
:10216000000000000000000000000000000000006F
:10217000000000000000000000000000000000005F
:10218000000000000000000000000000000000004F
:10219000000000000000000041542B4349504D5501
:1021A000583F0D0A0000000041542B4349504D5543
:1021B000583D0000222C000041542B434950534508
:1021C0004E443D0000000000000000000000000040
:1021D00000000000000000000000000000000000FF
:1021E00000000000000000000000000041542B43EC
:0C21F0004950434C4F53450D0A000000BD
:1021FC00441F000800000000010203040102030454
:04220C0006070809B0
:0400000508000000EF
:00000001FF
