:020000040800F2
:10000000140400202501000895010008950100084E
:100010009501000895010008950100080000000006
:100020000000000000000000000000009501000832
:1000300095010008000000009501000895010008E6
:100040009501000895010008950100089501000838
:100050009501000895010008950100089501000828
:100060009501000895010008950100089501000818
:100070009501000895010008950100089501000808
:100080009501000895010008950100080000000096
:1000900000000000000000000000000095010008C2
:1000A00095010008950100089501000895010008D8
:1000B00095010008950100089501000895010008C8
:1000C00095010008950100089501000895010008B8
:1000D00095010008A9050008950100089501000890
:1000E0009501000895010008950100080000000036
:1000F0000000000000000000000000000000000000
:1001000000000000000000000000000000000000EF
:1001100000000000000000009501000895010008A3
:100120005FF808F180B582B000AF40F65863C0F6C2
:1001300000037B6040F20003C2F200033B600BE06F
:100140007B681A683B681A603B6803F104033B60F4
:100150007B6803F104037B603A6840F21403C2F247
:1001600000039A42ECD3094809494FF00002884243
:10017000B8BF40F8042BFFF6FAAF00F00FF800F01C
:100180000DFA07F10807BD4680BD000014000020ED
:100190001800002080B400AFFEE700BF80B500AFBC
:1001A0004FF48053C4F202034FF48052C4F20202AF
:1001B000126842F001021A604FF48052C4F2020247
:1001C0004FF48053C4F2020359684FF00003CFF696
:1001D000FF030B4053604FF48053C4F202034FF40B
:1001E0008052C4F20202126822F0847222F4803239
:1001F0001A604FF48053C4F202034FF48052C4F2E9
:100200000202126822F480221A604FF48053C4F272
:1002100002034FF48052C4F20202526822F4FE023A
:100220005A604FF48053C4F202034FF41F029A60E5
:100230004FF48053C4F202034FF00002DA6200F080
:1002400009F84FF46D43CEF200034FF000629A605C
:1002500080BD00BF80B500AF00F002F880BD00BFD8
:1002600080B483B000AF4FF000037B604FF0000319
:100270003B604FF48053C4F202034FF48052C4F247
:100280000202126842F480321A604FF48053C4F2C2
:1002900002031B6803F400333B607B6803F1010336
:1002A0007B603B68002B03D17B68B3F5A06FECD17A
:1002B0004FF48053C4F202031B6803F40033002B95
:1002C00003D04FF001033B6002E04FF000033B60BE
:1002D0003B68012B6DD14FF48053C4F202034FF4FD
:1002E0008052C4F2020252685A604FF48053C4F242
:1002F00002034FF48052C4F2020252685A604FF473
:100300008053C4F202034FF48052C4F202025268D6
:100310005A604FF48053C4F202034FF48052C4F287
:100320000202526822F47C125A604FF48053C4F2E5
:1003300002034FF48052C4F20202526842F498124F
:100340005A604FF48053C4F202034FF48052C4F257
:100350000202126842F080721A6000BF4FF48053AC
:10036000C4F202031B6803F00073002BF6D04FF4B5
:100370008053C4F202034FF48052C4F20202526866
:1003800022F003025A604FF48053C4F202034FF488
:100390008052C4F20202526842F002025A6000BF68
:1003A0004FF48053C4F202035B6803F00C03082B84
:1003B000F6D107F10C07BD4680BC704780B489B008
:1003C00000AF786039604FF00003FB614FF000032D
:1003D0003B614FF00003BB614FF00003FB604FF047
:1003E00000037B614FF00003BB603B68DB7803F0E8
:1003F0000F03FB613B68DB7803F01003002B04D094
:100400003B689B78FA691343FB613B681B88DBB24E
:10041000002B4ED07B681B687B614FF00003BB61F3
:1004200041E0BB694FF0010202FA03F3FB603B6855
:100430001B881A46FB6813403B613A69FB689A4285
:100440002DD1BB694FEA8303FB60FB684FF00F02BD
:1004500002FA03F3BB60BB686FEA03037A691340D7
:100460007B61FB68FA6902FA03F37A6913437B61E3
:100470003B68DB78282B07D1BB694FF0010202FAF9
:1004800003F27B685A610AE03B68DB78482B06D1AF
:10049000BB694FF0010202FA03F27B681A61BB6983
:1004A00003F10103BB61BB69072BBAD97B687A6989
:1004B0001A603B681B88FF2B53D97B685B687B61A4
:1004C0004FF00003BB6146E0BB6903F108034FF046
:1004D000010202FA03F3FB603B681B881A46FB68C3
:1004E00013403B613A69FB689A4230D1BB694FEADD
:1004F0008303FB60FB684FF00F0202FA03F3BB605B
:10050000BB686FEA03037A6913407B61FB68FA6991
:1005100002FA03F37A6913437B613B68DB78282B8B
:1005200008D1BB6903F108034FF0010202FA03F29C
:100530007B685A613B68DB78482B08D1BB6903F1C3
:1005400008034FF0010202FA03F27B681A61BB69EB
:1005500003F10103BB61BB69072BB5D97B687A69DD
:100560005A6007F12407BD4680BC704780B483B051
:1005700000AF786013460A467A807B707B78002B48
:1005800003D07A887B681A6102E07A887B685A61B6
:1005900007F10C07BD4680BC704700BF80B500AFB7
:1005A00000F050F8FEE700BF80B500AF4FF4605395
:1005B000C4F201031B889BB203F02003002B3FD041
:1005C0004FF46050C4F2010000F086FB03461A4667
:1005D00040F21403C2F200031A6040F21403C2F2A4
:1005E00000031B68312B12D14FF40060C4F20100EC
:1005F0004FF480714FF00102FFF7B8FF40F624601E
:10060000C0F600004FF0090100F0CAF818E040F20F
:100610001403C2F200031B68302B11D14FF40060A9
:10062000C4F201004FF480714FF00002FFF79EFF0B
:1006300040F63060C0F600004FF00A0100F0B0F85C
:1006400080BD00BFB0B588B000AF40F63C63C0F6D7
:10065000000307F104041D460FCD0FC495E8070001
:1006600003C4227044F204004FF0010100F0AEF91F
:1006700000F07EF800F018F800F050F84FF46050E9
:10068000C4F2010040F225514FF0010200F0BEFA21
:1006900007F1040318464FF0190100F081F807F143
:1006A0002007BD46B0BD00BF80B582B000AF4FF49B
:1006B0008073BB804FF00303BB714FF01003FB71DD
:1006C00007F104034FF40060C4F201001946FFF77C
:1006D00075FE4FF40073BB804FF01803FB714FF0B1
:1006E0000303BB7107F104034FF40060C4F201007F
:1006F0001946FFF763FE4FF48063BB804FF004039D
:10070000FB7107F104034FF40060C4F201001946C5
:10071000FFF754FE07F10807BD4680BD80B584B0E1
:1007200000AF4FF416533B604FF00003BB804FF017
:100730000003FB804FF000033B814FF00003BB81BF
:100740004FF00C037B813B464FF46050C4F2010034
:10075000194600F065F94FF46050C4F201004FF003
:10076000010100F033FA07F11007BD4680BD00BF5C
:1007700080B582B000AF4FF025033B714FF000030E
:100780007B714FF00003BB714FF00103FB7107F168
:100790000403184600F0D2FA07F10807BD4680BDF1
:1007A00080B582B000AF7860396018E07B681B7854
:1007B0007A6802F101027A604FF46050C4F20100DD
:1007C000194600F075FA00BF4FF46050C4F2010002
:1007D0004FF0400100F092FA0346002BF4D03B6842
:1007E000002B0CBF00230123DBB23A6802F1FF3279
:1007F0003A60002BDAD107F10807BD4680BD00BF83
:1008000080B489B000AF78604FF00003FB614FF017
:100810000003BB614FF000037B614FF000033B61BD
:100820004FF00003FB604FF48053C4F202035B6897
:1008300003F00C03FB61FB69042B0AD0082B0FD0DB
:10084000002B47D17A684FF49053C0F27A031360BB
:1008500047E07A684FF49053C0F27A03136040E0A7
:100860004FF48053C4F202035B6803F47013BB615E
:100870004FF48053C4F202035B6803F480337B615E
:10088000BB694FEA934303F10203BB617B69002B11
:1008900009D1BA694FF41063C0F23D0303FB02F2C1
:1008A0007B681A601DE04FF48053C4F20203DB6AD8
:1008B00003F00F0303F10103FB604FF49053C0F208
:1008C0007A03FA68B3FBF2F3BA6902FB03F27B68BE
:1008D0001A6006E07A684FF49053C0F27A0313600E
:1008E00000BF4FF48053C4F202035B6803F0F003CF
:1008F000FB61FB694FEA1313FB6140F20003C2F294
:100900000003FA699B181B78DBB23B617B681A68AD
:100910003B6922FA03F27B685A604FF48053C4F2B9
:1009200002035B6803F4E063FB61FB694FEA132396
:10093000FB6140F20003C2F20003FA699B181B78C6
:10094000DBB23B617B685A683B6922FA03F27B6841
:100950009A604FF48053C4F202035B6803F460535F
:10096000FB61FB694FEAD323FB6140F20003C2F253
:100970000003FA699B181B78DBB23B617B685A68FD
:100980003B6922FA03F27B68DA604FF48053C4F2C9
:1009900002035B6803F44043FB61FB694FEA933356
:1009A000FB6140F21003C2F20003FA699B181B7846
:1009B000DBB23B617B68DA683B69B2FBF3F27B68D0
:1009C0001A6107F12407BD4680BC704780B483B02C
:1009D00000AF78600B46FB70FB78002B0CD04FF417
:1009E0008053C4F202034FF48052C4F202029169B0
:1009F0007A680A439A610DE04FF48053C4F202030F
:100A00004FF48052C4F2020291697A686FEA0202DE
:100A10000A409A6107F10C07BD4680BC704700BFD1
:100A200080B58CB000AF786039604FF00003FB6296
:100A30004FF00003BB624FF000037B624FF00003F6
:100A40003B624FF00003FB617B68FB617B681B8AA4
:100A50009BB2FB62FA6A4CF6FF731340FB623B6881
:100A6000DB88FA6A1343FB62FB6A9AB27B681A82DC
:100A70007B689B899BB2FB62FA6A4EF6F3131340C4
:100A8000FB623B689A883B681B8913439AB23B68B8
:100A90005B8913439BB2FA6A1343FB62FB6A9AB207
:100AA0007B689A817B689B8A9BB2FB62FA6A4FF6ED
:100AB000FF431340FB623B689B89FA6A1343FB6266
:100AC000FB6A9AB27B689A8207F108031846FFF71F
:100AD00097FEFA694FF46053C4F201039A4202D1BF
:100AE0007B69BB6201E03B69BB627B689B899BB20F
:100AF0009BB21BB2002B0FDABA6A13464FEA83038C
:100B00009B184FEA83029A183B681B684FEA43031D
:100B1000B2FBF3F37B620EE0BA6A13464FEA83033B
:100B20009B184FEA83029A183B681B684FEA8303BD
:100B3000B2FBF3F37B627A6A48F21F53C5F2EB1300
:100B4000A3FB02134FEA53134FEA0313FB62FB6A42
:100B50004FEA13134FF0640202FB03F37A6AD31ACD
:100B60003B627B689B899BB29BB21BB2002B12DA63
:100B70003B6A4FEAC30303F1320248F21F53C5F246
:100B8000EB13A3FB02134FEA531303F00703FA6AB4
:100B90001343FB6211E03B6A4FEA031303F1320295
:100BA00048F21F53C5F2EB13A3FB02134FEA531392
:100BB00003F00F03FA6A1343FB62FB6A9AB27B6885
:100BC0001A8107F13007BD4680BD00BF80B483B0F5
:100BD00000AF78600B46FB70FB78002B08D07B6879
:100BE0009B899BB243F400539AB27B689A8107E0D9
:100BF0007B689B899BB223F400539AB27B689A81ED
:100C000007F10C07BD4680BC704700BF80B487B0B9
:100C100000AF786013460A467A807B704FF000037D
:100C20003B614FF00003FB604FF00003BB604FF0EF
:100C300000037B617B687B617B88DBB24FEA5313E7
:100C4000DBB23B617B8803F01F03FB60FB684FF066
:100C5000010202FA03F3BB603B69012B04D17B69FB
:100C600003F10C037B610BE03B69022B04D17B6930
:100C700003F110037B6103E07B6903F114037B61E3
:100C80007B78002B06D07B697A691168BA680A43C1
:100C90001A6007E07B697A691168BA686FEA020234
:100CA0000A401A6007F11C07BD4680BC704700BFB0
:100CB00080B483B000AF78600B467B807B884FEABE
:100CC000C3534FEAD3539AB27B689A8007F10C075B
:100CD000BD4680BC704700BF80B483B000AF786071
:100CE0007B689B889BB24FEAC3534FEAD3539BB2B6
:100CF000184607F10C07BD4680BC704780B485B02C
:100D000000AF78600B467B804FF00003FB737B687D
:100D10001B889AB27B8813409BB2002B03D04FF004
:100D20000103FB7302E04FF00003FB73FB7B1846EB
:100D300007F11407BD4680BC704700BF80B487B080
:100D400000AF78604FF000037B614FF000033B6120
:100D50004FF00F03FB607B68DB78002B47D04FF42C
:100D60006D43CEF20003DB686FEA030303F4E06334
:100D70004FEA13237B617B69C3F104033B617B6909
:100D8000FA6822FA03F3FB607B685B781A463B69DA
:100D900002FA03F37B617B689B781A46FB68134079
:100DA0007A6913437B617B694FEA03137B614FF4DC
:100DB0006143CEF200037A68127811467A69D2B2A2
:100DC0005B1883F800234FF46143CEF200037A6886
:100DD00012784FEA5212D2B27968097801F01F01F5
:100DE0004FF0010000FA01F143F8221014E04FF433
:100DF0006143CEF200037A6812784FEA5212D2B2FF
:100E00007968097801F01F014FF0010000FA01F143
:100E100002F1200243F8221007F11C07BD4680BCF6
:100E2000704700BF4C4544204F4E0D0A00000000A3
:100E30004C4544204F46460D0A0000002057656C83
:100E4000636F6D6520746F20426C7565746F6F748D
:080E500068210D0A00000000FA
:100E58000000000001020304010203040607080958
:040E68000204060872
:0400000508000000EF
:00000001FF
